{
  "_format": "hh-sol-artifact-1",
  "contractName": "Staking",
  "sourceName": "contracts/Staking.sol",
  "abi": [
    {
      "inputs": [
        {
          "internalType": "address",
          "name": "_tokenAddress",
          "type": "address"
        },
        {
          "internalType": "uint256",
          "name": "_decimals",
          "type": "uint256"
        }
      ],
      "stateMutability": "nonpayable",
      "type": "constructor"
    },
    {
      "anonymous": false,
      "inputs": [
        {
          "indexed": true,
          "internalType": "address",
          "name": "user",
          "type": "address"
        },
        {
          "indexed": false,
          "internalType": "uint256",
          "name": "amount",
          "type": "uint256"
        }
      ],
      "name": "AddWithdrawPending",
      "type": "event"
    },
    {
      "anonymous": false,
      "inputs": [
        {
          "indexed": true,
          "internalType": "address",
          "name": "user",
          "type": "address"
        },
        {
          "indexed": false,
          "internalType": "uint256",
          "name": "amount",
          "type": "uint256"
        }
      ],
      "name": "Deposit",
      "type": "event"
    },
    {
      "anonymous": false,
      "inputs": [
        {
          "indexed": true,
          "internalType": "address",
          "name": "previousOwner",
          "type": "address"
        },
        {
          "indexed": true,
          "internalType": "address",
          "name": "newOwner",
          "type": "address"
        }
      ],
      "name": "OwnershipTransferred",
      "type": "event"
    },
    {
      "anonymous": false,
      "inputs": [
        {
          "indexed": true,
          "internalType": "address",
          "name": "user",
          "type": "address"
        },
        {
          "indexed": false,
          "internalType": "uint256",
          "name": "amountLockedUp",
          "type": "uint256"
        }
      ],
      "name": "RewardLockedUp",
      "type": "event"
    },
    {
      "anonymous": false,
      "inputs": [
        {
          "indexed": false,
          "internalType": "uint256",
          "name": "oldValue",
          "type": "uint256"
        },
        {
          "indexed": false,
          "internalType": "uint256",
          "name": "newValue",
          "type": "uint256"
        }
      ],
      "name": "UpdateWithdrawPendingPeriod",
      "type": "event"
    },
    {
      "anonymous": false,
      "inputs": [
        {
          "indexed": true,
          "internalType": "address",
          "name": "user",
          "type": "address"
        },
        {
          "indexed": false,
          "internalType": "uint256",
          "name": "amount",
          "type": "uint256"
        }
      ],
      "name": "Withdraw",
      "type": "event"
    },
    {
      "inputs": [],
      "name": "HARVEST_INTERVAL",
      "outputs": [
        {
          "internalType": "uint256",
          "name": "",
          "type": "uint256"
        }
      ],
      "stateMutability": "view",
      "type": "function"
    },
    {
      "inputs": [
        {
          "internalType": "address",
          "name": "_account",
          "type": "address"
        }
      ],
      "name": "canHarvest",
      "outputs": [
        {
          "internalType": "bool",
          "name": "",
          "type": "bool"
        }
      ],
      "stateMutability": "view",
      "type": "function"
    },
    {
      "inputs": [
        {
          "internalType": "uint256",
          "name": "_amount",
          "type": "uint256"
        }
      ],
      "name": "deposit",
      "outputs": [],
      "stateMutability": "nonpayable",
      "type": "function"
    },
    {
      "inputs": [
        {
          "internalType": "uint256",
          "name": "_from",
          "type": "uint256"
        }
      ],
      "name": "getMultiplier",
      "outputs": [
        {
          "internalType": "uint256",
          "name": "",
          "type": "uint256"
        }
      ],
      "stateMutability": "view",
      "type": "function"
    },
    {
      "inputs": [],
      "name": "getReward",
      "outputs": [],
      "stateMutability": "nonpayable",
      "type": "function"
    },
    {
      "inputs": [],
      "name": "lastRewardTimestamp",
      "outputs": [
        {
          "internalType": "uint256",
          "name": "",
          "type": "uint256"
        }
      ],
      "stateMutability": "view",
      "type": "function"
    },
    {
      "inputs": [],
      "name": "minDeposit",
      "outputs": [
        {
          "internalType": "uint256",
          "name": "",
          "type": "uint256"
        }
      ],
      "stateMutability": "view",
      "type": "function"
    },
    {
      "inputs": [],
      "name": "owner",
      "outputs": [
        {
          "internalType": "address",
          "name": "",
          "type": "address"
        }
      ],
      "stateMutability": "view",
      "type": "function"
    },
    {
      "inputs": [
        {
          "internalType": "address",
          "name": "_user",
          "type": "address"
        }
      ],
      "name": "pendingToken",
      "outputs": [
        {
          "internalType": "uint256",
          "name": "",
          "type": "uint256"
        }
      ],
      "stateMutability": "view",
      "type": "function"
    },
    {
      "inputs": [],
      "name": "renounceOwnership",
      "outputs": [],
      "stateMutability": "nonpayable",
      "type": "function"
    },
    {
      "inputs": [
        {
          "internalType": "uint256",
          "name": "_minDeposit",
          "type": "uint256"
        }
      ],
      "name": "setMinDeposit",
      "outputs": [],
      "stateMutability": "nonpayable",
      "type": "function"
    },
    {
      "inputs": [
        {
          "internalType": "uint256",
          "name": "_timestamp",
          "type": "uint256"
        }
      ],
      "name": "startStaking",
      "outputs": [],
      "stateMutability": "nonpayable",
      "type": "function"
    },
    {
      "inputs": [],
      "name": "startTimestamp",
      "outputs": [
        {
          "internalType": "uint256",
          "name": "",
          "type": "uint256"
        }
      ],
      "stateMutability": "view",
      "type": "function"
    },
    {
      "inputs": [
        {
          "internalType": "uint256",
          "name": "_amount",
          "type": "uint256"
        }
      ],
      "name": "startWithdrawingProcess",
      "outputs": [],
      "stateMutability": "nonpayable",
      "type": "function"
    },
    {
      "inputs": [],
      "name": "token",
      "outputs": [
        {
          "internalType": "contract IERC20",
          "name": "",
          "type": "address"
        }
      ],
      "stateMutability": "view",
      "type": "function"
    },
    {
      "inputs": [],
      "name": "tokenPerDay",
      "outputs": [
        {
          "internalType": "uint256",
          "name": "",
          "type": "uint256"
        }
      ],
      "stateMutability": "view",
      "type": "function"
    },
    {
      "inputs": [],
      "name": "tokensForReward",
      "outputs": [
        {
          "internalType": "uint256",
          "name": "",
          "type": "uint256"
        }
      ],
      "stateMutability": "view",
      "type": "function"
    },
    {
      "inputs": [],
      "name": "totalLockedUpRewards",
      "outputs": [
        {
          "internalType": "uint256",
          "name": "",
          "type": "uint256"
        }
      ],
      "stateMutability": "view",
      "type": "function"
    },
    {
      "inputs": [],
      "name": "totalPaid",
      "outputs": [
        {
          "internalType": "uint256",
          "name": "",
          "type": "uint256"
        }
      ],
      "stateMutability": "view",
      "type": "function"
    },
    {
      "inputs": [],
      "name": "totalStaked",
      "outputs": [
        {
          "internalType": "uint256",
          "name": "",
          "type": "uint256"
        }
      ],
      "stateMutability": "view",
      "type": "function"
    },
    {
      "inputs": [
        {
          "internalType": "address",
          "name": "newOwner",
          "type": "address"
        }
      ],
      "name": "transferOwnership",
      "outputs": [],
      "stateMutability": "nonpayable",
      "type": "function"
    },
    {
      "inputs": [],
      "name": "updateStaking",
      "outputs": [],
      "stateMutability": "nonpayable",
      "type": "function"
    },
    {
      "inputs": [
        {
          "internalType": "uint256",
          "name": "_pendingPeriodInDays",
          "type": "uint256"
        }
      ],
      "name": "updateWithdrawPendingPeriod",
      "outputs": [],
      "stateMutability": "nonpayable",
      "type": "function"
    },
    {
      "inputs": [
        {
          "internalType": "address",
          "name": "",
          "type": "address"
        }
      ],
      "name": "userInfo",
      "outputs": [
        {
          "internalType": "uint256",
          "name": "amount",
          "type": "uint256"
        },
        {
          "internalType": "uint256",
          "name": "rewardDebt",
          "type": "uint256"
        },
        {
          "internalType": "uint256",
          "name": "rewardLockedUp",
          "type": "uint256"
        },
        {
          "internalType": "uint256",
          "name": "nextHarvestUntil",
          "type": "uint256"
        }
      ],
      "stateMutability": "view",
      "type": "function"
    },
    {
      "inputs": [
        {
          "internalType": "address",
          "name": "",
          "type": "address"
        }
      ],
      "name": "withdrawPending",
      "outputs": [
        {
          "internalType": "uint256",
          "name": "reserved",
          "type": "uint256"
        },
        {
          "internalType": "uint256",
          "name": "endOfPending",
          "type": "uint256"
        }
      ],
      "stateMutability": "view",
      "type": "function"
    },
    {
      "inputs": [],
      "name": "withdrawPendingPeriod",
      "outputs": [
        {
          "internalType": "uint256",
          "name": "",
          "type": "uint256"
        }
      ],
      "stateMutability": "view",
      "type": "function"
    },
    {
      "inputs": [],
      "name": "withdrawReserved",
      "outputs": [],
      "stateMutability": "nonpayable",
      "type": "function"
    }
  ],
  "bytecode": "0x60806040523480156200001157600080fd5b50604051620017f0380380620017f083398101604081905262000034916200014a565b6200003f33620000d5565b600180547fffffffffffffffffffffffff00000000000000000000000000000000000000001673ffffffffffffffffffffffffffffffffffffffff84161781556200008b9082620002c9565b6200009890600a620001dc565b620000a6906103e8620002a7565b600655610258600555620000bc81600a620001dc565b620000c9906001620002a7565b60045550620002f99050565b6000805473ffffffffffffffffffffffffffffffffffffffff8381167fffffffffffffffffffffffff0000000000000000000000000000000000000000831681178455604051919092169283917f8be0079c531659141344cd1fd0a4f28419497f9722a3daafe3b4186f6b6457e09190a35050565b600080604083850312156200015e57600080fd5b825173ffffffffffffffffffffffffffffffffffffffff811681146200018357600080fd5b6020939093015192949293505050565b600181815b80851115620001d4578160001904821115620001b857620001b8620002e3565b80851615620001c657918102915b93841c939080029062000198565b509250929050565b6000620001ea8383620001f1565b9392505050565b6000826200020257506001620002a1565b816200021157506000620002a1565b81600181146200022a5760028114620002355762000255565b6001915050620002a1565b60ff841115620002495762000249620002e3565b50506001821b620002a1565b5060208310610133831016604e8410600b84101617156200027a575081810a620002a1565b62000286838362000193565b80600019048211156200029d576200029d620002e3565b0290505b92915050565b6000816000190483118215151615620002c457620002c4620002e3565b500290565b600082821015620002de57620002de620002e3565b500390565b634e487b7160e01b600052601160045260246000fd5b6114e780620003096000396000f3fe608060405234801561001057600080fd5b50600436106101b95760003560e01c80638fcc9cfb116100f9578063e6fd48bc11610097578063f2fde38b11610071578063f2fde38b14610398578063f8077fae146103ab578063fb70261a146103b4578063fc0c546a146103d757600080fd5b8063e6fd48bc14610373578063e7b0f6661461037c578063efb79a0f1461038557600080fd5b8063b6b55f25116100d3578063b6b55f251461033c578063c6da96c51461034f578063cde10ca014610358578063d09bda7c1461036b57600080fd5b80638fcc9cfb1461030d578063a002959c14610320578063adf8252d1461032957600080fd5b80633d18b91211610166578063715018a611610140578063715018a6146102aa578063762b1c92146102b2578063817b1cd2146102c55780638da5cb5b146102ce57600080fd5b80633d18b9121461029057806341b3d18514610298578063474fa630146102a157600080fd5b806313a8b55e1161019757806313a8b55e1461021e5780631959a002146102335780632fa087ae1461028857600080fd5b806303afd56b146101be57806303c0a7ae146101ff5780630d9a34a214610216575b600080fd5b6101e56101cc36600461134a565b600d602052600090815260409020805460019091015482565b604080519283526020830191909152015b60405180910390f35b61020860065481565b6040519081526020016101f6565b61020860b481565b61023161022c3660046113a9565b6103f7565b005b61026861024136600461134a565b600c6020526000908152604090208054600182015460028301546003909301549192909184565b6040805194855260208501939093529183015260608201526080016101f6565b610231610546565b6102316106d4565b61020860045481565b61020860075481565b6102316106e6565b6102316102c03660046113a9565b610771565b61020860085481565b60005473ffffffffffffffffffffffffffffffffffffffff165b60405173ffffffffffffffffffffffffffffffffffffffff90911681526020016101f6565b61023161031b3660046113a9565b610865565b610208600a5481565b6102086103373660046113a9565b6108eb565b61023161034a3660046113a9565b61091d565b61020860055481565b61020861036636600461134a565b610c46565b610231610d07565b610208600b5481565b61020860095481565b6102316103933660046113a9565b610d8f565b6102316103a636600461134a565b610f44565b61020860025481565b6103c76103c236600461134a565b611074565b60405190151581526020016101f6565b6001546102e89073ffffffffffffffffffffffffffffffffffffffff1681565b60005473ffffffffffffffffffffffffffffffffffffffff16331461047d576040517f08c379a000000000000000000000000000000000000000000000000000000000815260206004820181905260248201527f4f776e61626c653a2063616c6c6572206973206e6f7420746865206f776e657260448201526064015b60405180910390fd5b60008111801561048e5750601e8111155b6104f4576040517f08c379a000000000000000000000000000000000000000000000000000000000815260206004820152601960248201527f50726f7669646520646179732066726f6d203120746f203330000000000000006044820152606401610474565b600061050182603c61142e565b60055460408051918252602082018390529192507fe9f8f445bab063b4f79218deb892f311c116956865f869afa8b5fb5eb22effae910160405180910390a160055550565b336000908152600d6020526040902060018101544210156105e9576040517f08c379a000000000000000000000000000000000000000000000000000000000815260206004820152602660248201527f5761697420756e74696c20796f75722070656e64696e6720706572696f64206960448201527f73206c65667400000000000000000000000000000000000000000000000000006064820152608401610474565b60015481546040517fa9059cbb000000000000000000000000000000000000000000000000000000008152336004820152602481019190915273ffffffffffffffffffffffffffffffffffffffff9091169063a9059cbb90604401602060405180830381600087803b15801561065e57600080fd5b505af1158015610672573d6000803e3d6000fd5b505050506040513d601f19601f820116820180604052508101906106969190611387565b50600080825560405190815233907f884edad9ce6fa2440d8a54cc123490eb96d2768479d49ff9c7366125a94243649060200160405180910390a250565b6106dc610d07565b6106e46110d9565b565b60005473ffffffffffffffffffffffffffffffffffffffff163314610767576040517f08c379a000000000000000000000000000000000000000000000000000000000815260206004820181905260248201527f4f776e61626c653a2063616c6c6572206973206e6f7420746865206f776e65726044820152606401610474565b6106e460006112d5565b60005473ffffffffffffffffffffffffffffffffffffffff1633146107f2576040517f08c379a000000000000000000000000000000000000000000000000000000000815260206004820181905260248201527f4f776e61626c653a2063616c6c6572206973206e6f7420746865206f776e65726044820152606401610474565b42811161085b576040517f08c379a000000000000000000000000000000000000000000000000000000000815260206004820152601360248201527f50726f76696465206675747572652074696d65000000000000000000000000006044820152606401610474565b600b819055600255565b60005473ffffffffffffffffffffffffffffffffffffffff1633146108e6576040517f08c379a000000000000000000000000000000000000000000000000000000000815260206004820181905260248201527f4f776e61626c653a2063616c6c6572206973206e6f7420746865206f776e65726044820152606401610474565b600455565b60006002546000141561090057506000919050565b61025861090d834261146b565b61091791906113f3565b92915050565b600454811015610989576040517f08c379a000000000000000000000000000000000000000000000000000000000815260206004820152601b60248201527f4e6f7420456e6f75676820526571756972656420546f6b656e732100000000006044820152606401610474565b336000908152600c602052604090206109a0610d07565b6109a86110d9565b8115610be8576001546040517f70a0823100000000000000000000000000000000000000000000000000000000815230600482015260009173ffffffffffffffffffffffffffffffffffffffff16906370a082319060240160206040518083038186803b158015610a1857600080fd5b505afa158015610a2c573d6000803e3d6000fd5b505050506040513d601f19601f82011682018060405250810190610a5091906113c2565b6001546040517f23b872dd0000000000000000000000000000000000000000000000000000000081523360048201523060248201526044810186905291925073ffffffffffffffffffffffffffffffffffffffff16906323b872dd90606401602060405180830381600087803b158015610ac957600080fd5b505af1158015610add573d6000803e3d6000fd5b505050506040513d601f19601f82011682018060405250810190610b019190611387565b506001546040517f70a0823100000000000000000000000000000000000000000000000000000000815230600482015260009173ffffffffffffffffffffffffffffffffffffffff16906370a082319060240160206040518083038186803b158015610b6c57600080fd5b505afa158015610b80573d6000803e3d6000fd5b505050506040513d601f19601f82011682018060405250810190610ba491906113c2565b90506000610bb2838361146b565b90508060086000828254610bc691906113db565b9091555050835481908590600090610bdf9084906113db565b90915550505050505b600354815464e8d4a5100091610bfd9161142e565b610c0791906113f3565b600182015560405182815233907fe1fffcc4923d04b559f4d29a8bfc6cda04eb5b0d3c460751c2402c5c5cc9109c906020015b60405180910390a25050565b73ffffffffffffffffffffffffffffffffffffffff81166000908152600c6020526040812060035460025442118015610c80575060085415155b15610cd2576000610c926002546108eb565b9050600060065482610ca4919061142e565b600854909150610cb98264e8d4a5100061142e565b610cc391906113f3565b610ccd90846113db565b925050505b6001820154825464e8d4a5100090610ceb90849061142e565b610cf591906113f3565b610cff919061146b565b949350505050565b6000610d146002546108eb565b905080610d1e5750565b600854610d2c575042600255565b600060065482610d3c919061142e565b905080600a6000828254610d5091906113db565b9091555050600854610d678264e8d4a5100061142e565b610d7191906113f3565b60036000828254610d8291906113db565b9091555050426002555050565b336000908152600d60209081526040808320600c90925290912082610e10576040517f08c379a000000000000000000000000000000000000000000000000000000000815260206004820152601f60248201527f416d6f756e742073686f756c64206265206d6f7265207468616e207a65726f006044820152606401610474565b8054831115610e7b576040517f08c379a000000000000000000000000000000000000000000000000000000000815260206004820152601360248201527f496e73756666696369656e7420616d6f756e74000000000000000000000000006044820152606401610474565b82826000016000828254610e8f91906113db565b9091555050600554610ea190426113db565b6001830155610eae610d07565b610eb66110d9565b8260086000828254610ec8919061146b565b9091555050805483908290600090610ee190849061146b565b9091555050600354815464e8d4a5100091610efb9161142e565b610f0591906113f3565b600182015560405183815233907f6834b788ec609e92db1218dba3c7f8669702e493fad1e68e6d6d70942aa882f29060200160405180910390a2505050565b60005473ffffffffffffffffffffffffffffffffffffffff163314610fc5576040517f08c379a000000000000000000000000000000000000000000000000000000000815260206004820181905260248201527f4f776e61626c653a2063616c6c6572206973206e6f7420746865206f776e65726044820152606401610474565b73ffffffffffffffffffffffffffffffffffffffff8116611068576040517f08c379a000000000000000000000000000000000000000000000000000000000815260206004820152602660248201527f4f776e61626c653a206e6577206f776e657220697320746865207a65726f206160448201527f64647265737300000000000000000000000000000000000000000000000000006064820152608401610474565b611071816112d5565b50565b73ffffffffffffffffffffffffffffffffffffffff81166000908152600c60205260408120600b546110a89060b4906113db565b816003015410156110cc5760b4600b546110c291906113db565b4210159392505050565b6003015442101592915050565b336000908152600c602052604090206003810154611102576110fc60b4426113db565b60038201555b6000816001015464e8d4a510006003548460000154611121919061142e565b61112b91906113f3565b611135919061146b565b905061114033611074565b1561126b576000811180611158575060008260020154115b1561126757600082600201548261116f91906113db565b9050826002015460076000828254611187919061146b565b90915550506000600284015561119e60b4426113db565b60038401556001546040517fa9059cbb0000000000000000000000000000000000000000000000000000000081523360048201526024810183905273ffffffffffffffffffffffffffffffffffffffff9091169063a9059cbb90604401602060405180830381600087803b15801561121557600080fd5b505af1158015611229573d6000803e3d6000fd5b505050506040513d601f19601f8201168201806040525081019061124d9190611387565b50806009600082825461126091906113db565b9091555050505b5050565b8015611267578082600201600082825461128591906113db565b92505081905550806007600082825461129e91906113db565b909155505060405181815233907f3523c290f1fe55821da5494c12b82edf5399c04c36cb7abed4b87e2a05fd5b5a90602001610c3a565b6000805473ffffffffffffffffffffffffffffffffffffffff8381167fffffffffffffffffffffffff0000000000000000000000000000000000000000831681178455604051919092169283917f8be0079c531659141344cd1fd0a4f28419497f9722a3daafe3b4186f6b6457e09190a35050565b60006020828403121561135c57600080fd5b813573ffffffffffffffffffffffffffffffffffffffff8116811461138057600080fd5b9392505050565b60006020828403121561139957600080fd5b8151801515811461138057600080fd5b6000602082840312156113bb57600080fd5b5035919050565b6000602082840312156113d457600080fd5b5051919050565b600082198211156113ee576113ee611482565b500190565b600082611429577f4e487b7100000000000000000000000000000000000000000000000000000000600052601260045260246000fd5b500490565b6000817fffffffffffffffffffffffffffffffffffffffffffffffffffffffffffffffff048311821515161561146657611466611482565b500290565b60008282101561147d5761147d611482565b500390565b7f4e487b7100000000000000000000000000000000000000000000000000000000600052601160045260246000fdfea26469706673582212207c797d4d16909ceee8216f19ca4009132315af6b7bff012e94a291a600c125d764736f6c63430008070033",
  "linkReferences": {},
  "deployedLinkReferences": {}
}