{
  "_format": "hh-sol-artifact-1",
  "contractName": "CZIX",
  "sourceName": "contracts/CZIX.sol",
  "abi": [
    {
      "inputs": [
        {
          "internalType": "uint256",
          "name": "initialSupply",
          "type": "uint256"
        },
        {
          "internalType": "string",
          "name": "tokenName",
          "type": "string"
        },
        {
          "internalType": "uint8",
          "name": "decimalUnits",
          "type": "uint8"
        },
        {
          "internalType": "string",
          "name": "tokenSymbol",
          "type": "string"
        },
        {
          "internalType": "address",
          "name": "_router",
          "type": "address"
        }
      ],
      "stateMutability": "nonpayable",
      "type": "constructor"
    },
    {
      "anonymous": false,
      "inputs": [
        {
          "indexed": true,
          "internalType": "address",
          "name": "account",
          "type": "address"
        },
        {
          "indexed": false,
          "internalType": "bool",
          "name": "isExcluded",
          "type": "bool"
        }
      ],
      "name": "AccountLimitExclusion",
      "type": "event"
    },
    {
      "anonymous": false,
      "inputs": [
        {
          "indexed": true,
          "internalType": "address",
          "name": "from",
          "type": "address"
        },
        {
          "indexed": false,
          "internalType": "uint256",
          "name": "value",
          "type": "uint256"
        }
      ],
      "name": "Burn",
      "type": "event"
    },
    {
      "anonymous": false,
      "inputs": [
        {
          "indexed": true,
          "internalType": "address",
          "name": "account",
          "type": "address"
        },
        {
          "indexed": false,
          "internalType": "bool",
          "name": "isExcluded",
          "type": "bool"
        }
      ],
      "name": "FeeExclusion",
      "type": "event"
    },
    {
      "anonymous": false,
      "inputs": [
        {
          "indexed": true,
          "internalType": "address",
          "name": "from",
          "type": "address"
        },
        {
          "indexed": false,
          "internalType": "uint256",
          "name": "value",
          "type": "uint256"
        }
      ],
      "name": "Freeze",
      "type": "event"
    },
    {
      "anonymous": false,
      "inputs": [
        {
          "indexed": true,
          "internalType": "address",
          "name": "previousOwner",
          "type": "address"
        },
        {
          "indexed": true,
          "internalType": "address",
          "name": "newOwner",
          "type": "address"
        }
      ],
      "name": "OwnershipTransferred",
      "type": "event"
    },
    {
      "anonymous": false,
      "inputs": [
        {
          "indexed": true,
          "internalType": "address",
          "name": "from",
          "type": "address"
        },
        {
          "indexed": true,
          "internalType": "address",
          "name": "to",
          "type": "address"
        },
        {
          "indexed": false,
          "internalType": "uint256",
          "name": "value",
          "type": "uint256"
        }
      ],
      "name": "Transfer",
      "type": "event"
    },
    {
      "anonymous": false,
      "inputs": [
        {
          "indexed": true,
          "internalType": "address",
          "name": "account",
          "type": "address"
        },
        {
          "indexed": false,
          "internalType": "bool",
          "name": "isExcluded",
          "type": "bool"
        }
      ],
      "name": "TransferLimitExclusion",
      "type": "event"
    },
    {
      "anonymous": false,
      "inputs": [
        {
          "indexed": true,
          "internalType": "address",
          "name": "from",
          "type": "address"
        },
        {
          "indexed": false,
          "internalType": "uint256",
          "name": "value",
          "type": "uint256"
        }
      ],
      "name": "Unfreeze",
      "type": "event"
    },
    {
      "inputs": [
        {
          "internalType": "address",
          "name": "_router",
          "type": "address"
        }
      ],
      "name": "ChangeRouter",
      "outputs": [],
      "stateMutability": "nonpayable",
      "type": "function"
    },
    {
      "inputs": [],
      "name": "Pair",
      "outputs": [
        {
          "internalType": "address",
          "name": "",
          "type": "address"
        }
      ],
      "stateMutability": "view",
      "type": "function"
    },
    {
      "inputs": [],
      "name": "Router",
      "outputs": [
        {
          "internalType": "contract IDEXV2Router02",
          "name": "",
          "type": "address"
        }
      ],
      "stateMutability": "view",
      "type": "function"
    },
    {
      "inputs": [],
      "name": "accountLimit",
      "outputs": [
        {
          "internalType": "uint256",
          "name": "",
          "type": "uint256"
        }
      ],
      "stateMutability": "view",
      "type": "function"
    },
    {
      "inputs": [
        {
          "internalType": "address",
          "name": "",
          "type": "address"
        },
        {
          "internalType": "address",
          "name": "",
          "type": "address"
        }
      ],
      "name": "allowance",
      "outputs": [
        {
          "internalType": "uint256",
          "name": "",
          "type": "uint256"
        }
      ],
      "stateMutability": "view",
      "type": "function"
    },
    {
      "inputs": [
        {
          "internalType": "address",
          "name": "_spender",
          "type": "address"
        },
        {
          "internalType": "uint256",
          "name": "amount",
          "type": "uint256"
        }
      ],
      "name": "approve",
      "outputs": [
        {
          "internalType": "bool",
          "name": "success",
          "type": "bool"
        }
      ],
      "stateMutability": "nonpayable",
      "type": "function"
    },
    {
      "inputs": [
        {
          "internalType": "address",
          "name": "",
          "type": "address"
        }
      ],
      "name": "balanceOf",
      "outputs": [
        {
          "internalType": "uint256",
          "name": "",
          "type": "uint256"
        }
      ],
      "stateMutability": "view",
      "type": "function"
    },
    {
      "inputs": [
        {
          "internalType": "uint256",
          "name": "amount",
          "type": "uint256"
        }
      ],
      "name": "burn",
      "outputs": [
        {
          "internalType": "bool",
          "name": "success",
          "type": "bool"
        }
      ],
      "stateMutability": "nonpayable",
      "type": "function"
    },
    {
      "inputs": [],
      "name": "decimals",
      "outputs": [
        {
          "internalType": "uint8",
          "name": "",
          "type": "uint8"
        }
      ],
      "stateMutability": "view",
      "type": "function"
    },
    {
      "inputs": [
        {
          "internalType": "uint256",
          "name": "amount",
          "type": "uint256"
        }
      ],
      "name": "freeze",
      "outputs": [
        {
          "internalType": "bool",
          "name": "success",
          "type": "bool"
        }
      ],
      "stateMutability": "nonpayable",
      "type": "function"
    },
    {
      "inputs": [
        {
          "internalType": "address",
          "name": "",
          "type": "address"
        }
      ],
      "name": "freezeOf",
      "outputs": [
        {
          "internalType": "uint256",
          "name": "",
          "type": "uint256"
        }
      ],
      "stateMutability": "view",
      "type": "function"
    },
    {
      "inputs": [],
      "name": "name",
      "outputs": [
        {
          "internalType": "string",
          "name": "",
          "type": "string"
        }
      ],
      "stateMutability": "view",
      "type": "function"
    },
    {
      "inputs": [],
      "name": "owner",
      "outputs": [
        {
          "internalType": "address payable",
          "name": "",
          "type": "address"
        }
      ],
      "stateMutability": "view",
      "type": "function"
    },
    {
      "inputs": [],
      "name": "renounceOwnership",
      "outputs": [],
      "stateMutability": "nonpayable",
      "type": "function"
    },
    {
      "inputs": [
        {
          "internalType": "uint256",
          "name": "amount",
          "type": "uint256"
        }
      ],
      "name": "setAccountLimit",
      "outputs": [],
      "stateMutability": "nonpayable",
      "type": "function"
    },
    {
      "inputs": [
        {
          "internalType": "address",
          "name": "account",
          "type": "address"
        },
        {
          "internalType": "bool",
          "name": "isExcluded",
          "type": "bool"
        }
      ],
      "name": "setAccountLimitExclusion",
      "outputs": [],
      "stateMutability": "nonpayable",
      "type": "function"
    },
    {
      "inputs": [
        {
          "internalType": "address[]",
          "name": "bots",
          "type": "address[]"
        },
        {
          "internalType": "bool",
          "name": "isBlacklisted",
          "type": "bool"
        }
      ],
      "name": "setBotsBlacklisting",
      "outputs": [],
      "stateMutability": "nonpayable",
      "type": "function"
    },
    {
      "inputs": [
        {
          "internalType": "address",
          "name": "account",
          "type": "address"
        },
        {
          "internalType": "bool",
          "name": "isExcluded",
          "type": "bool"
        }
      ],
      "name": "setFeeExclusion",
      "outputs": [],
      "stateMutability": "nonpayable",
      "type": "function"
    },
    {
      "inputs": [
        {
          "internalType": "uint256",
          "name": "amount",
          "type": "uint256"
        }
      ],
      "name": "setSingleTransferLimit",
      "outputs": [],
      "stateMutability": "nonpayable",
      "type": "function"
    },
    {
      "inputs": [
        {
          "internalType": "uint256",
          "name": "duration",
          "type": "uint256"
        }
      ],
      "name": "setSwapCooldownDuration",
      "outputs": [],
      "stateMutability": "nonpayable",
      "type": "function"
    },
    {
      "inputs": [
        {
          "internalType": "address",
          "name": "account",
          "type": "address"
        },
        {
          "internalType": "bool",
          "name": "isExcluded",
          "type": "bool"
        }
      ],
      "name": "setTransferLimitExclusion",
      "outputs": [],
      "stateMutability": "nonpayable",
      "type": "function"
    },
    {
      "inputs": [],
      "name": "singleTransferLimit",
      "outputs": [
        {
          "internalType": "uint256",
          "name": "",
          "type": "uint256"
        }
      ],
      "stateMutability": "view",
      "type": "function"
    },
    {
      "inputs": [
        {
          "internalType": "address",
          "name": "",
          "type": "address"
        }
      ],
      "name": "statuses",
      "outputs": [
        {
          "internalType": "bool",
          "name": "feeExcluded",
          "type": "bool"
        },
        {
          "internalType": "bool",
          "name": "accountLimitExcluded",
          "type": "bool"
        },
        {
          "internalType": "bool",
          "name": "transferLimitExcluded",
          "type": "bool"
        },
        {
          "internalType": "bool",
          "name": "blacklistedBot",
          "type": "bool"
        },
        {
          "internalType": "uint256",
          "name": "swapCooldown",
          "type": "uint256"
        }
      ],
      "stateMutability": "view",
      "type": "function"
    },
    {
      "inputs": [],
      "name": "swapCooldownDuration",
      "outputs": [
        {
          "internalType": "uint256",
          "name": "",
          "type": "uint256"
        }
      ],
      "stateMutability": "view",
      "type": "function"
    },
    {
      "inputs": [],
      "name": "symbol",
      "outputs": [
        {
          "internalType": "string",
          "name": "",
          "type": "string"
        }
      ],
      "stateMutability": "view",
      "type": "function"
    },
    {
      "inputs": [],
      "name": "totalSupply",
      "outputs": [
        {
          "internalType": "uint256",
          "name": "",
          "type": "uint256"
        }
      ],
      "stateMutability": "view",
      "type": "function"
    },
    {
      "inputs": [
        {
          "internalType": "address",
          "name": "recipient",
          "type": "address"
        },
        {
          "internalType": "uint256",
          "name": "amount",
          "type": "uint256"
        }
      ],
      "name": "transfer",
      "outputs": [
        {
          "internalType": "bool",
          "name": "",
          "type": "bool"
        }
      ],
      "stateMutability": "nonpayable",
      "type": "function"
    },
    {
      "inputs": [
        {
          "internalType": "address",
          "name": "sender",
          "type": "address"
        },
        {
          "internalType": "address",
          "name": "recipient",
          "type": "address"
        },
        {
          "internalType": "uint256",
          "name": "amount",
          "type": "uint256"
        }
      ],
      "name": "transferFrom",
      "outputs": [
        {
          "internalType": "bool",
          "name": "success",
          "type": "bool"
        }
      ],
      "stateMutability": "nonpayable",
      "type": "function"
    },
    {
      "inputs": [
        {
          "internalType": "address payable",
          "name": "newOwner",
          "type": "address"
        }
      ],
      "name": "transferOwnership",
      "outputs": [],
      "stateMutability": "nonpayable",
      "type": "function"
    },
    {
      "inputs": [
        {
          "internalType": "uint256",
          "name": "amount",
          "type": "uint256"
        }
      ],
      "name": "unfreeze",
      "outputs": [
        {
          "internalType": "bool",
          "name": "success",
          "type": "bool"
        }
      ],
      "stateMutability": "nonpayable",
      "type": "function"
    },
    {
      "inputs": [
        {
          "internalType": "uint256",
          "name": "amount",
          "type": "uint256"
        }
      ],
      "name": "withdrawEther",
      "outputs": [],
      "stateMutability": "nonpayable",
      "type": "function"
    },
    {
      "stateMutability": "payable",
      "type": "receive"
    }
  ],
  "bytecode": "0x60806040523480156200001157600080fd5b5060405162003023380380620030238339810160408190526200003491620008f7565b600080547fffffffffffffffffffffffff000000000000000000000000000000000000000016339081178255604051909182917f8be0079c531659141344cd1fd0a4f28419497f9722a3daafe3b4186f6b6457e0908290a3508351620000a290600390602087019062000759565b508151620000b890600490602085019062000759565b50600580547fffffffffffffffffffffffffffffffffffffffffffffffffffffffffffffff001660ff8516908117909155620000f690600a62000a59565b62000102908662000b18565b600655620001108162000482565b6040805160a0810182526001808252602082018190529181019190915260006060820181905260808201819052600a906200016060005473ffffffffffffffffffffffffffffffffffffffff1690565b73ffffffffffffffffffffffffffffffffffffffff1673ffffffffffffffffffffffffffffffffffffffff16815260200190815260200160002060008201518160000160006101000a81548160ff02191690831515021790555060208201518160000160016101000a81548160ff02191690831515021790555060408201518160000160026101000a81548160ff02191690831515021790555060608201518160000160036101000a81548160ff021916908315150217905550608082015181600101559050506040518060a001604052806001151581526020016001151581526020016001151581526020016000151581526020016000815250600a60003073ffffffffffffffffffffffffffffffffffffffff1673ffffffffffffffffffffffffffffffffffffffff16815260200190815260200160002060008201518160000160006101000a81548160ff02191690831515021790555060208201518160000160016101000a81548160ff02191690831515021790555060408201518160000160026101000a81548160ff02191690831515021790555060608201518160000160036101000a81548160ff021916908315150217905550608082015181600101559050506001600a6000600260009054906101000a900473ffffffffffffffffffffffffffffffffffffffff1673ffffffffffffffffffffffffffffffffffffffff1673ffffffffffffffffffffffffffffffffffffffff16815260200190815260200160002060000160016101000a81548160ff0219169083151502179055506001600a6000600160009054906101000a900473ffffffffffffffffffffffffffffffffffffffff1673ffffffffffffffffffffffffffffffffffffffff1673ffffffffffffffffffffffffffffffffffffffff16815260200190815260200160002060000160016101000a81548160ff0219169083151502179055506200043b6006546064620006a760201b620017ce1760201c565b6007819055506200045c6006546103e8620006a760201b620017ce1760201c565b6008555050603c6009555050600654336000908152600b60205260409020555062000bd6565b60008190508073ffffffffffffffffffffffffffffffffffffffff1663c45a01556040518163ffffffff1660e01b815260040160206040518083038186803b158015620004ce57600080fd5b505afa158015620004e3573d6000803e3d6000fd5b505050506040513d601f19601f82011682018060405250810190620005099190620008d9565b73ffffffffffffffffffffffffffffffffffffffff1663c9c65396308373ffffffffffffffffffffffffffffffffffffffff1663ad5c46486040518163ffffffff1660e01b815260040160206040518083038186803b1580156200056c57600080fd5b505afa15801562000581573d6000803e3d6000fd5b505050506040513d601f19601f82011682018060405250810190620005a79190620008d9565b6040517fffffffff0000000000000000000000000000000000000000000000000000000060e085901b16815273ffffffffffffffffffffffffffffffffffffffff928316600482015291166024820152604401602060405180830381600087803b1580156200061557600080fd5b505af11580156200062a573d6000803e3d6000fd5b505050506040513d601f19601f82011682018060405250810190620006509190620008d9565b6002805473ffffffffffffffffffffffffffffffffffffffff9283167fffffffffffffffffffffffff0000000000000000000000000000000000000000918216179091556001805493909216921691909117905550565b6000620006f183836040518060400160405280601a81526020017f536166654d6174683a206469766973696f6e206279207a65726f000000000000815250620006fa60201b60201c565b90505b92915050565b6000818362000741576040517f08c379a00000000000000000000000000000000000000000000000000000000081526004016200073891906200099a565b60405180910390fd5b506000620007508486620009ed565b95945050505050565b828054620007679062000b6d565b90600052602060002090601f0160209004810192826200078b5760008555620007d6565b82601f10620007a657805160ff1916838001178555620007d6565b82800160010185558215620007d6579182015b82811115620007d6578251825591602001919060010190620007b9565b50620007e4929150620007e8565b5090565b5b80821115620007e45760008155600101620007e9565b805173ffffffffffffffffffffffffffffffffffffffff811681146200082457600080fd5b919050565b600082601f8301126200083b57600080fd5b815167ffffffffffffffff8082111562000859576200085962000bc0565b604051601f83017fffffffffffffffffffffffffffffffffffffffffffffffffffffffffffffffe0908116603f01168101908282118183101715620008a257620008a262000bc0565b81604052838152866020858801011115620008bc57600080fd5b620008cf84602083016020890162000b3a565b9695505050505050565b600060208284031215620008ec57600080fd5b620006f182620007ff565b600080600080600060a086880312156200091057600080fd5b8551602087015190955067ffffffffffffffff808211156200093157600080fd5b6200093f89838a0162000829565b95506040880151915060ff821682146200095857600080fd5b6060880151919450808211156200096e57600080fd5b506200097d8882890162000829565b9250506200098e60808701620007ff565b90509295509295909350565b6020815260008251806020840152620009bb81604085016020870162000b3a565b601f017fffffffffffffffffffffffffffffffffffffffffffffffffffffffffffffffe0169190910160400192915050565b60008262000a0b57634e487b7160e01b600052601260045260246000fd5b500490565b600181815b8085111562000a5157816000190482111562000a355762000a3562000baa565b8085161562000a4357918102915b93841c939080029062000a15565b509250929050565b6000620006f160ff84168360008262000a7557506001620006f4565b8162000a8457506000620006f4565b816001811462000a9d576002811462000aa85762000ac8565b6001915050620006f4565b60ff84111562000abc5762000abc62000baa565b50506001821b620006f4565b5060208310610133831016604e8410600b841016171562000aed575081810a620006f4565b62000af9838362000a10565b806000190482111562000b105762000b1062000baa565b029392505050565b600081600019048311821515161562000b355762000b3562000baa565b500290565b60005b8381101562000b5757818101518382015260200162000b3d565b8381111562000b67576000848401525b50505050565b600181811c9082168062000b8257607f821691505b6020821081141562000ba457634e487b7160e01b600052602260045260246000fd5b50919050565b634e487b7160e01b600052601160045260246000fd5b634e487b7160e01b600052604160045260246000fd5b61243d8062000be66000396000f3fe6080604052600436106101dc5760003560e01c8063750e6bbb11610102578063cd4217c111610095578063dd62ed3e11610064578063dd62ed3e14610609578063f2fde38b14610641578063f6c4389c14610661578063f6d7eade1461067757600080fd5b8063cd4217c11461057c578063d72d591b146105a9578063d7a78db8146105c9578063db17fb6f146105e957600080fd5b806395d89b41116100d157806395d89b41146104a05780639dd0d31c146104b5578063a9059cbb146104d5578063af11c1f0146104f557600080fd5b8063750e6bbb146104155780637844c2ea146104355780638da5cb5b146104555780638e5a6abf1461048057600080fd5b8063326c89401161017a5780636623fc46116101495780636623fc461461039d5780636ed3ec67146103bd57806370a08231146103d3578063715018a61461040057600080fd5b8063326c8940146102f55780633736421b1461030b5780633bed33ce1461035d57806342966c681461037d57600080fd5b806318160ddd116101b657806318160ddd1461026557806323b872dd1461028957806330b94cd5146102a9578063313ce567146102c957600080fd5b806306fdde03146101e8578063095ea7b3146102135780631612d2d71461024357600080fd5b366101e357005b600080fd5b3480156101f457600080fd5b506101fd6106a4565b60405161020a91906121ee565b60405180910390f35b34801561021f57600080fd5b5061023361022e3660046120ad565b610732565b604051901515815260200161020a565b34801561024f57600080fd5b5061026361025e3660046121d5565b61077b565b005b34801561027157600080fd5b5061027b60065481565b60405190815260200161020a565b34801561029557600080fd5b506102336102a4366004612037565b610806565b3480156102b557600080fd5b506102636102c4366004612078565b610a5d565b3480156102d557600080fd5b506005546102e39060ff1681565b60405160ff909116815260200161020a565b34801561030157600080fd5b5061027b60085481565b34801561031757600080fd5b506002546103389073ffffffffffffffffffffffffffffffffffffffff1681565b60405173ffffffffffffffffffffffffffffffffffffffff909116815260200161020a565b34801561036957600080fd5b506102636103783660046121d5565b610b69565b34801561038957600080fd5b506102336103983660046121d5565b610c34565b3480156103a957600080fd5b506102336103b83660046121d5565b610cd5565b3480156103c957600080fd5b5061027b60095481565b3480156103df57600080fd5b5061027b6103ee366004611fc4565b600b6020526000908152604090205481565b34801561040c57600080fd5b50610263610d84565b34801561042157600080fd5b506102636104303660046121d5565b610e74565b34801561044157600080fd5b506102636104503660046121d5565b610efa565b34801561046157600080fd5b5060005473ffffffffffffffffffffffffffffffffffffffff16610338565b34801561048c57600080fd5b5061026361049b366004612078565b610f80565b3480156104ac57600080fd5b506101fd61108b565b3480156104c157600080fd5b506102636104d0366004611fc4565b611098565b3480156104e157600080fd5b506102336104f03660046120ad565b6111aa565b34801561050157600080fd5b5061054c610510366004611fc4565b600a602052600090815260409020805460019091015460ff80831692610100810482169262010000820483169263010000009092049091169085565b6040805195151586529315156020860152911515928401929092529015156060830152608082015260a00161020a565b34801561058857600080fd5b5061027b610597366004611fc4565b600c6020526000908152604090205481565b3480156105b557600080fd5b506102636105c43660046120d9565b611344565b3480156105d557600080fd5b506102336105e43660046121d5565b611464565b3480156105f557600080fd5b50610263610604366004612078565b611513565b34801561061557600080fd5b5061027b610624366004611ffe565b600d60209081526000928352604080842090915290825290205481565b34801561064d57600080fd5b5061026361065c366004611fc4565b61161d565b34801561066d57600080fd5b5061027b60075481565b34801561068357600080fd5b506001546103389073ffffffffffffffffffffffffffffffffffffffff1681565b600380546106b1906122cb565b80601f01602080910402602001604051908101604052809291908181526020018280546106dd906122cb565b801561072a5780601f106106ff5761010080835404028352916020019161072a565b820191906000526020600020905b81548152906001019060200180831161070d57829003601f168201915b505050505081565b600080821161074057600080fd5b50336000908152600d6020908152604080832073ffffffffffffffffffffffffffffffffffffffff9590951683529390529190912055600190565b60005473ffffffffffffffffffffffffffffffffffffffff163314610801576040517f08c379a000000000000000000000000000000000000000000000000000000000815260206004820181905260248201527f4f776e61626c653a2063616c6c6572206973206e6f7420746865206f776e657260448201526064015b60405180910390fd5b600855565b600073ffffffffffffffffffffffffffffffffffffffff831661082857600080fd5b6000821161083557600080fd5b73ffffffffffffffffffffffffffffffffffffffff84166000908152600b602052604090205482111561086757600080fd5b73ffffffffffffffffffffffffffffffffffffffff83166000908152600b60205260409020546108978382612261565b10156108a257600080fd5b73ffffffffffffffffffffffffffffffffffffffff84166000908152600d602090815260408083203384529091529020548211156108df57600080fd5b6108e98484611817565b6108f4848484611945565b73ffffffffffffffffffffffffffffffffffffffff83166000908152600b60205260409020546109279084908490611a44565b6109318484611b11565b73ffffffffffffffffffffffffffffffffffffffff84166000908152600b60205260409020546109619083611c34565b73ffffffffffffffffffffffffffffffffffffffff8086166000908152600b6020526040808220939093559085168152205461099d9083611c76565b73ffffffffffffffffffffffffffffffffffffffff8085166000908152600b60209081526040808320949094559187168152600d825282812033825290915220546109e89083611c34565b73ffffffffffffffffffffffffffffffffffffffff8581166000818152600d6020908152604080832033845282529182902094909455518581529186169290917fddf252ad1be2c89b69c2b068fc378daa952ba7f163c4a11628f55a4df523b3ef910160405180910390a35060019392505050565b60005473ffffffffffffffffffffffffffffffffffffffff163314610ade576040517f08c379a000000000000000000000000000000000000000000000000000000000815260206004820181905260248201527f4f776e61626c653a2063616c6c6572206973206e6f7420746865206f776e657260448201526064016107f8565b73ffffffffffffffffffffffffffffffffffffffff82166000818152600a602090815260409182902080547fffffffffffffffffffffffffffffffffffffffffffffffffffffffffffffff001685151590811790915591519182527f7091fe081ceb2a09a20e86451ff5cba0b3ed3a6fc7fb6557147601a61645903591015b60405180910390a25050565b60005473ffffffffffffffffffffffffffffffffffffffff163314610bea576040517f08c379a000000000000000000000000000000000000000000000000000000000815260206004820181905260248201527f4f776e61626c653a2063616c6c6572206973206e6f7420746865206f776e657260448201526064016107f8565b6000805460405173ffffffffffffffffffffffffffffffffffffffff9091169183156108fc02918491818181858888f19350505050158015610c30573d6000803e3d6000fd5b5050565b336000908152600b6020526040812054821115610c5057600080fd5b60008211610c5d57600080fd5b336000908152600b6020526040902054610c779083611c34565b336000908152600b6020526040902055600654610c949083611c34565b60065560405182815233907fcc16f5dbb4873280815c1ee09dbd06736cffcc184412cf7a71a0fdb75d397ca5906020015b60405180910390a2506001919050565b336000908152600c6020526040812054821115610cf157600080fd5b60008211610cfe57600080fd5b336000908152600c6020526040902054610d189083611c34565b336000908152600c6020908152604080832093909355600b90522054610d3e9083611c76565b336000818152600b6020526040908190209290925590517f2cfce4af01bcb9d6cf6c84ee1b7c491100b8695368264146a94d71e10a63083f90610cc59085815260200190565b60005473ffffffffffffffffffffffffffffffffffffffff163314610e05576040517f08c379a000000000000000000000000000000000000000000000000000000000815260206004820181905260248201527f4f776e61626c653a2063616c6c6572206973206e6f7420746865206f776e657260448201526064016107f8565b6000805460405173ffffffffffffffffffffffffffffffffffffffff909116907f8be0079c531659141344cd1fd0a4f28419497f9722a3daafe3b4186f6b6457e0908390a3600080547fffffffffffffffffffffffff0000000000000000000000000000000000000000169055565b60005473ffffffffffffffffffffffffffffffffffffffff163314610ef5576040517f08c379a000000000000000000000000000000000000000000000000000000000815260206004820181905260248201527f4f776e61626c653a2063616c6c6572206973206e6f7420746865206f776e657260448201526064016107f8565b600955565b60005473ffffffffffffffffffffffffffffffffffffffff163314610f7b576040517f08c379a000000000000000000000000000000000000000000000000000000000815260206004820181905260248201527f4f776e61626c653a2063616c6c6572206973206e6f7420746865206f776e657260448201526064016107f8565b600755565b60005473ffffffffffffffffffffffffffffffffffffffff163314611001576040517f08c379a000000000000000000000000000000000000000000000000000000000815260206004820181905260248201527f4f776e61626c653a2063616c6c6572206973206e6f7420746865206f776e657260448201526064016107f8565b73ffffffffffffffffffffffffffffffffffffffff82166000818152600a602052604090819020805484151562010000027fffffffffffffffffffffffffffffffffffffffffffffffffffffffffff00ffff909116179055517fd6963e556f3a140104edfbcb0525c250d58aba9c663957b547070e0b081e706890610b5d90841515815260200190565b600480546106b1906122cb565b60005473ffffffffffffffffffffffffffffffffffffffff163314611119576040517f08c379a000000000000000000000000000000000000000000000000000000000815260206004820181905260248201527f4f776e61626c653a2063616c6c6572206973206e6f7420746865206f776e657260448201526064016107f8565b60015473ffffffffffffffffffffffffffffffffffffffff8281169116141561119e576040517f08c379a000000000000000000000000000000000000000000000000000000000815260206004820152600b60248201527f416c72656164792053657400000000000000000000000000000000000000000060448201526064016107f8565b6111a781611cef565b50565b600073ffffffffffffffffffffffffffffffffffffffff83166111cc57600080fd5b600082116111d957600080fd5b336000908152600b60205260409020548211156111f557600080fd5b73ffffffffffffffffffffffffffffffffffffffff83166000908152600b60205260409020546112258382612261565b101561123057600080fd5b61123a3384611817565b611245338484611945565b73ffffffffffffffffffffffffffffffffffffffff83166000908152600b60205260409020546112789084908490611a44565b6112823384611b11565b336000908152600b602052604090205461129c9083611c34565b336000908152600b60205260408082209290925573ffffffffffffffffffffffffffffffffffffffff8516815220546112d59083611c76565b73ffffffffffffffffffffffffffffffffffffffff84166000818152600b60205260409081902092909255905133907fddf252ad1be2c89b69c2b068fc378daa952ba7f163c4a11628f55a4df523b3ef906113339086815260200190565b60405180910390a350600192915050565b60005473ffffffffffffffffffffffffffffffffffffffff1633146113c5576040517f08c379a000000000000000000000000000000000000000000000000000000000815260206004820181905260248201527f4f776e61626c653a2063616c6c6572206973206e6f7420746865206f776e657260448201526064016107f8565b60005b825181101561145f5781600a60008584815181106113e8576113e8612387565b60209081029190910181015173ffffffffffffffffffffffffffffffffffffffff16825281019190915260400160002080549115156301000000027fffffffffffffffffffffffffffffffffffffffffffffffffffffffff00ffffff909216919091179055806114578161231f565b9150506113c8565b505050565b336000908152600b602052604081205482111561148057600080fd5b6000821161148d57600080fd5b336000908152600b60205260409020546114a79083611c34565b336000908152600b6020908152604080832093909355600c905220546114cd9083611c76565b336000818152600c6020526040908190209290925590517ff97a274face0b5517365ad396b1fdba6f68bd3135ef603e44272adba3af5a1e090610cc59085815260200190565b60005473ffffffffffffffffffffffffffffffffffffffff163314611594576040517f08c379a000000000000000000000000000000000000000000000000000000000815260206004820181905260248201527f4f776e61626c653a2063616c6c6572206973206e6f7420746865206f776e657260448201526064016107f8565b73ffffffffffffffffffffffffffffffffffffffff82166000818152600a6020526040908190208054841515610100027fffffffffffffffffffffffffffffffffffffffffffffffffffffffffffff00ff909116179055517ff2957fc8824da1387f07d42a7166047700b4182572afb6e4044e15cfa7b52dd890610b5d90841515815260200190565b60005473ffffffffffffffffffffffffffffffffffffffff16331461169e576040517f08c379a000000000000000000000000000000000000000000000000000000000815260206004820181905260248201527f4f776e61626c653a2063616c6c6572206973206e6f7420746865206f776e657260448201526064016107f8565b73ffffffffffffffffffffffffffffffffffffffff8116611741576040517f08c379a000000000000000000000000000000000000000000000000000000000815260206004820152602660248201527f4f776e61626c653a206e6577206f776e657220697320746865207a65726f206160448201527f646472657373000000000000000000000000000000000000000000000000000060648201526084016107f8565b6000805460405173ffffffffffffffffffffffffffffffffffffffff808516939216917f8be0079c531659141344cd1fd0a4f28419497f9722a3daafe3b4186f6b6457e091a3600080547fffffffffffffffffffffffff00000000000000000000000000000000000000001673ffffffffffffffffffffffffffffffffffffffff92909216919091179055565b600061181083836040518060400160405280601a81526020017f536166654d6174683a206469766973696f6e206279207a65726f000000000000815250611f08565b9392505050565b73ffffffffffffffffffffffffffffffffffffffff82166000908152600a60205260409020546301000000900460ff16156118ae576040517f08c379a000000000000000000000000000000000000000000000000000000000815260206004820152601560248201527f53656e64657220697320626c61636b6c6973746564000000000000000000000060448201526064016107f8565b73ffffffffffffffffffffffffffffffffffffffff81166000908152600a60205260409020546301000000900460ff1615610c30576040517f08c379a000000000000000000000000000000000000000000000000000000000815260206004820152601860248201527f526563697069656e7420697320626c61636b6c6973746564000000000000000060448201526064016107f8565b73ffffffffffffffffffffffffffffffffffffffff83166000908152600a602052604090205462010000900460ff161580156119ad575073ffffffffffffffffffffffffffffffffffffffff82166000908152600a602052604090205462010000900460ff16155b1561145f5760085481111561145f576040517f08c379a000000000000000000000000000000000000000000000000000000000815260206004820152602160248201527f5472616e7366657220616d6f756e74206578636565647320746865206c696d6960448201527f740000000000000000000000000000000000000000000000000000000000000060648201526084016107f8565b73ffffffffffffffffffffffffffffffffffffffff83166000908152600a6020526040902054610100900460ff1661145f57600754611a838383612261565b111561145f576040517f08c379a000000000000000000000000000000000000000000000000000000000815260206004820152602a60248201527f526563697069656e74206861732072656163686564206163636f756e7420746f60448201527f6b656e73206c696d69740000000000000000000000000000000000000000000060648201526084016107f8565b6000600954118015611b3d575060025473ffffffffffffffffffffffffffffffffffffffff8381169116145b8015611b64575060015473ffffffffffffffffffffffffffffffffffffffff828116911614155b15610c305773ffffffffffffffffffffffffffffffffffffffff81166000908152600a60205260409020600101544211611bfa576040517f08c379a000000000000000000000000000000000000000000000000000000000815260206004820152601460248201527f5377617020697320636f6f6c696e6720646f776e00000000000000000000000060448201526064016107f8565b600954611c079042612261565b73ffffffffffffffffffffffffffffffffffffffff82166000908152600a60205260409020600101555050565b600061181083836040518060400160405280601e81526020017f536166654d6174683a207375627472616374696f6e206f766572666c6f770000815250611f59565b600080611c838385612261565b905083811015611810576040517f08c379a000000000000000000000000000000000000000000000000000000000815260206004820152601b60248201527f536166654d6174683a206164646974696f6e206f766572666c6f77000000000060448201526064016107f8565b60008190508073ffffffffffffffffffffffffffffffffffffffff1663c45a01556040518163ffffffff1660e01b815260040160206040518083038186803b158015611d3a57600080fd5b505afa158015611d4e573d6000803e3d6000fd5b505050506040513d601f19601f82011682018060405250810190611d729190611fe1565b73ffffffffffffffffffffffffffffffffffffffff1663c9c65396308373ffffffffffffffffffffffffffffffffffffffff1663ad5c46486040518163ffffffff1660e01b815260040160206040518083038186803b158015611dd457600080fd5b505afa158015611de8573d6000803e3d6000fd5b505050506040513d601f19601f82011682018060405250810190611e0c9190611fe1565b6040517fffffffff0000000000000000000000000000000000000000000000000000000060e085901b16815273ffffffffffffffffffffffffffffffffffffffff928316600482015291166024820152604401602060405180830381600087803b158015611e7957600080fd5b505af1158015611e8d573d6000803e3d6000fd5b505050506040513d601f19601f82011682018060405250810190611eb19190611fe1565b6002805473ffffffffffffffffffffffffffffffffffffffff9283167fffffffffffffffffffffffff0000000000000000000000000000000000000000918216179091556001805493909216921691909117905550565b60008183611f43576040517f08c379a00000000000000000000000000000000000000000000000000000000081526004016107f891906121ee565b506000611f508486612279565b95945050505050565b60008184841115611f97576040517f08c379a00000000000000000000000000000000000000000000000000000000081526004016107f891906121ee565b506000611f5084866122b4565b8035611faf816123e5565b919050565b80358015158114611faf57600080fd5b600060208284031215611fd657600080fd5b8135611810816123e5565b600060208284031215611ff357600080fd5b8151611810816123e5565b6000806040838503121561201157600080fd5b823561201c816123e5565b9150602083013561202c816123e5565b809150509250929050565b60008060006060848603121561204c57600080fd5b8335612057816123e5565b92506020840135612067816123e5565b929592945050506040919091013590565b6000806040838503121561208b57600080fd5b8235612096816123e5565b91506120a460208401611fb4565b90509250929050565b600080604083850312156120c057600080fd5b82356120cb816123e5565b946020939093013593505050565b600080604083850312156120ec57600080fd5b823567ffffffffffffffff8082111561210457600080fd5b818501915085601f83011261211857600080fd5b813560208282111561212c5761212c6123b6565b8160051b6040517fffffffffffffffffffffffffffffffffffffffffffffffffffffffffffffffe0603f8301168101818110868211171561216f5761216f6123b6565b604052838152828101945085830182870184018b101561218e57600080fd5b600096505b848710156121b8576121a481611fa4565b865260019690960195948301948301612193565b5096506121c89050878201611fb4565b9450505050509250929050565b6000602082840312156121e757600080fd5b5035919050565b600060208083528351808285015260005b8181101561221b578581018301518582016040015282016121ff565b8181111561222d576000604083870101525b50601f017fffffffffffffffffffffffffffffffffffffffffffffffffffffffffffffffe016929092016040019392505050565b6000821982111561227457612274612358565b500190565b6000826122af577f4e487b7100000000000000000000000000000000000000000000000000000000600052601260045260246000fd5b500490565b6000828210156122c6576122c6612358565b500390565b600181811c908216806122df57607f821691505b60208210811415612319577f4e487b7100000000000000000000000000000000000000000000000000000000600052602260045260246000fd5b50919050565b60007fffffffffffffffffffffffffffffffffffffffffffffffffffffffffffffffff82141561235157612351612358565b5060010190565b7f4e487b7100000000000000000000000000000000000000000000000000000000600052601160045260246000fd5b7f4e487b7100000000000000000000000000000000000000000000000000000000600052603260045260246000fd5b7f4e487b7100000000000000000000000000000000000000000000000000000000600052604160045260246000fd5b73ffffffffffffffffffffffffffffffffffffffff811681146111a757600080fdfea26469706673582212207049d9ebe713344f89f363ec6f9b7a7b685bab2f8b29d0d96242e1d7606f8f0964736f6c63430008070033",
  "linkReferences": {},
  "deployedLinkReferences": {}
}