{
  "_format": "hh-sol-artifact-1",
  "contractName": "Sale",
  "sourceName": "contracts/Sale.sol",
  "abi": [
    {
      "inputs": [],
      "stateMutability": "nonpayable",
      "type": "constructor"
    },
    {
      "anonymous": false,
      "inputs": [
        {
          "indexed": false,
          "internalType": "address",
          "name": "account",
          "type": "address"
        },
        {
          "indexed": false,
          "internalType": "uint256",
          "name": "amount",
          "type": "uint256"
        }
      ],
      "name": "Claimed",
      "type": "event"
    },
    {
      "anonymous": false,
      "inputs": [
        {
          "indexed": true,
          "internalType": "address",
          "name": "user",
          "type": "address"
        },
        {
          "indexed": false,
          "internalType": "uint256",
          "name": "usdtAmount",
          "type": "uint256"
        }
      ],
      "name": "Deposited",
      "type": "event"
    },
    {
      "anonymous": false,
      "inputs": [
        {
          "indexed": false,
          "internalType": "uint256",
          "name": "timestamp",
          "type": "uint256"
        }
      ],
      "name": "Listed",
      "type": "event"
    },
    {
      "anonymous": false,
      "inputs": [
        {
          "indexed": false,
          "internalType": "uint256",
          "name": "lockIndex",
          "type": "uint256"
        },
        {
          "indexed": true,
          "internalType": "address",
          "name": "account",
          "type": "address"
        },
        {
          "indexed": false,
          "internalType": "uint256",
          "name": "amount",
          "type": "uint256"
        }
      ],
      "name": "Locked",
      "type": "event"
    },
    {
      "anonymous": false,
      "inputs": [
        {
          "indexed": true,
          "internalType": "address",
          "name": "previousOwner",
          "type": "address"
        },
        {
          "indexed": true,
          "internalType": "address",
          "name": "newOwner",
          "type": "address"
        }
      ],
      "name": "OwnershipTransferred",
      "type": "event"
    },
    {
      "anonymous": false,
      "inputs": [
        {
          "indexed": false,
          "internalType": "address",
          "name": "token",
          "type": "address"
        },
        {
          "indexed": false,
          "internalType": "uint256",
          "name": "amount",
          "type": "uint256"
        }
      ],
      "name": "Recovered",
      "type": "event"
    },
    {
      "anonymous": false,
      "inputs": [
        {
          "indexed": true,
          "internalType": "address",
          "name": "user",
          "type": "address"
        },
        {
          "indexed": false,
          "internalType": "uint256",
          "name": "amount",
          "type": "uint256"
        }
      ],
      "name": "SendBack",
      "type": "event"
    },
    {
      "anonymous": false,
      "inputs": [
        {
          "indexed": false,
          "internalType": "uint256",
          "name": "stageIndex",
          "type": "uint256"
        },
        {
          "indexed": false,
          "internalType": "uint256",
          "name": "oldMinPeriod",
          "type": "uint256"
        },
        {
          "indexed": false,
          "internalType": "uint256",
          "name": "oldPercentPerPeriod",
          "type": "uint256"
        },
        {
          "indexed": false,
          "internalType": "uint256",
          "name": "oldOffsetTime",
          "type": "uint256"
        },
        {
          "indexed": false,
          "internalType": "uint256",
          "name": "minPeriod",
          "type": "uint256"
        },
        {
          "indexed": false,
          "internalType": "uint256",
          "name": "percentPerPeriod",
          "type": "uint256"
        },
        {
          "indexed": false,
          "internalType": "uint256",
          "name": "offsetTime",
          "type": "uint256"
        }
      ],
      "name": "UpdateClaimConditions",
      "type": "event"
    },
    {
      "anonymous": false,
      "inputs": [
        {
          "indexed": false,
          "internalType": "uint256",
          "name": "stageIndex",
          "type": "uint256"
        },
        {
          "indexed": false,
          "internalType": "uint256",
          "name": "oldPercent",
          "type": "uint256"
        },
        {
          "indexed": false,
          "internalType": "uint256",
          "name": "newPercent",
          "type": "uint256"
        }
      ],
      "name": "UpdateFirstReleasePercent",
      "type": "event"
    },
    {
      "anonymous": false,
      "inputs": [
        {
          "indexed": false,
          "internalType": "uint256",
          "name": "stageIndex",
          "type": "uint256"
        },
        {
          "indexed": false,
          "internalType": "uint256",
          "name": "oldValue",
          "type": "uint256"
        },
        {
          "indexed": false,
          "internalType": "uint256",
          "name": "newValue",
          "type": "uint256"
        }
      ],
      "name": "UpdateHardCapInTokens",
      "type": "event"
    },
    {
      "anonymous": false,
      "inputs": [
        {
          "indexed": false,
          "internalType": "uint256",
          "name": "stageIndex",
          "type": "uint256"
        },
        {
          "indexed": false,
          "internalType": "uint256",
          "name": "oldValue",
          "type": "uint256"
        },
        {
          "indexed": false,
          "internalType": "uint256",
          "name": "newValue",
          "type": "uint256"
        }
      ],
      "name": "UpdateMaxDepositAmount",
      "type": "event"
    },
    {
      "anonymous": false,
      "inputs": [
        {
          "indexed": false,
          "internalType": "uint256",
          "name": "stageIndex",
          "type": "uint256"
        },
        {
          "indexed": false,
          "internalType": "uint256",
          "name": "oldValue",
          "type": "uint256"
        },
        {
          "indexed": false,
          "internalType": "uint256",
          "name": "newValue",
          "type": "uint256"
        }
      ],
      "name": "UpdateMinDepositAmount",
      "type": "event"
    },
    {
      "anonymous": false,
      "inputs": [
        {
          "indexed": false,
          "internalType": "uint256",
          "name": "stageIndex",
          "type": "uint256"
        },
        {
          "indexed": false,
          "internalType": "uint256",
          "name": "oldStart",
          "type": "uint256"
        },
        {
          "indexed": false,
          "internalType": "uint256",
          "name": "oldEnd",
          "type": "uint256"
        },
        {
          "indexed": false,
          "internalType": "uint256",
          "name": "newStart",
          "type": "uint256"
        },
        {
          "indexed": false,
          "internalType": "uint256",
          "name": "newEnd",
          "type": "uint256"
        }
      ],
      "name": "UpdateSaleTime",
      "type": "event"
    },
    {
      "anonymous": false,
      "inputs": [
        {
          "indexed": false,
          "internalType": "uint256",
          "name": "stageIndex",
          "type": "uint256"
        },
        {
          "indexed": false,
          "internalType": "uint256",
          "name": "oldValue",
          "type": "uint256"
        },
        {
          "indexed": false,
          "internalType": "uint256",
          "name": "newValue",
          "type": "uint256"
        }
      ],
      "name": "UpdateThousandTokensPriceInUSDT",
      "type": "event"
    },
    {
      "inputs": [],
      "name": "DENOMINATOR",
      "outputs": [
        {
          "internalType": "uint256",
          "name": "",
          "type": "uint256"
        }
      ],
      "stateMutability": "view",
      "type": "function"
    },
    {
      "inputs": [],
      "name": "PRICE_DENOMINATOR",
      "outputs": [
        {
          "internalType": "uint256",
          "name": "",
          "type": "uint256"
        }
      ],
      "stateMutability": "view",
      "type": "function"
    },
    {
      "inputs": [
        {
          "internalType": "uint256",
          "name": "firstReleasePercent",
          "type": "uint256"
        },
        {
          "internalType": "uint256",
          "name": "minPeriod",
          "type": "uint256"
        },
        {
          "internalType": "uint256",
          "name": "percentPerPeriod",
          "type": "uint256"
        },
        {
          "internalType": "uint256",
          "name": "offsetTime",
          "type": "uint256"
        }
      ],
      "name": "addLock",
      "outputs": [],
      "stateMutability": "nonpayable",
      "type": "function"
    },
    {
      "inputs": [
        {
          "internalType": "uint256",
          "name": "startTimestamp",
          "type": "uint256"
        },
        {
          "internalType": "uint256",
          "name": "endTimestamp",
          "type": "uint256"
        },
        {
          "internalType": "uint256",
          "name": "hardCapInTokens",
          "type": "uint256"
        },
        {
          "internalType": "uint256",
          "name": "thousandTokensPriceInUSDT",
          "type": "uint256"
        },
        {
          "internalType": "uint256",
          "name": "minDepositInUSDT",
          "type": "uint256"
        },
        {
          "internalType": "uint256",
          "name": "maxDepositInUSDT",
          "type": "uint256"
        },
        {
          "internalType": "uint256",
          "name": "firstReleasePercent",
          "type": "uint256"
        },
        {
          "internalType": "uint256",
          "name": "minPeriod",
          "type": "uint256"
        },
        {
          "internalType": "uint256",
          "name": "percentPerPeriod",
          "type": "uint256"
        },
        {
          "internalType": "uint256",
          "name": "offsetTime",
          "type": "uint256"
        }
      ],
      "name": "addStage",
      "outputs": [],
      "stateMutability": "nonpayable",
      "type": "function"
    },
    {
      "inputs": [
        {
          "internalType": "address payable",
          "name": "_address",
          "type": "address"
        }
      ],
      "name": "addWhiteList",
      "outputs": [],
      "stateMutability": "nonpayable",
      "type": "function"
    },
    {
      "inputs": [
        {
          "internalType": "address[]",
          "name": "_addresses",
          "type": "address[]"
        }
      ],
      "name": "addWhiteListMulti",
      "outputs": [],
      "stateMutability": "nonpayable",
      "type": "function"
    },
    {
      "inputs": [
        {
          "internalType": "uint256",
          "name": "BNBAmount",
          "type": "uint256"
        }
      ],
      "name": "calculateUSDTFromBNB",
      "outputs": [
        {
          "internalType": "uint256",
          "name": "",
          "type": "uint256"
        }
      ],
      "stateMutability": "view",
      "type": "function"
    },
    {
      "inputs": [],
      "name": "claim",
      "outputs": [],
      "stateMutability": "nonpayable",
      "type": "function"
    },
    {
      "inputs": [
        {
          "internalType": "uint256",
          "name": "lockIndex",
          "type": "uint256"
        }
      ],
      "name": "claimTeamVesting",
      "outputs": [],
      "stateMutability": "nonpayable",
      "type": "function"
    },
    {
      "inputs": [
        {
          "internalType": "address",
          "name": "account",
          "type": "address"
        },
        {
          "internalType": "uint256",
          "name": "time",
          "type": "uint256"
        }
      ],
      "name": "claimable",
      "outputs": [
        {
          "internalType": "uint256",
          "name": "",
          "type": "uint256"
        }
      ],
      "stateMutability": "view",
      "type": "function"
    },
    {
      "inputs": [
        {
          "internalType": "uint256",
          "name": "lockIndex",
          "type": "uint256"
        },
        {
          "internalType": "address",
          "name": "account",
          "type": "address"
        },
        {
          "internalType": "uint256",
          "name": "time",
          "type": "uint256"
        }
      ],
      "name": "claimableByLockIndex",
      "outputs": [
        {
          "internalType": "uint256",
          "name": "",
          "type": "uint256"
        }
      ],
      "stateMutability": "view",
      "type": "function"
    },
    {
      "inputs": [
        {
          "internalType": "uint256",
          "name": "stageIndex",
          "type": "uint256"
        },
        {
          "internalType": "address",
          "name": "account",
          "type": "address"
        },
        {
          "internalType": "uint256",
          "name": "time",
          "type": "uint256"
        }
      ],
      "name": "claimableByStageIndex",
      "outputs": [
        {
          "internalType": "uint256",
          "name": "",
          "type": "uint256"
        }
      ],
      "stateMutability": "view",
      "type": "function"
    },
    {
      "inputs": [],
      "name": "currentStage",
      "outputs": [
        {
          "internalType": "uint256",
          "name": "",
          "type": "uint256"
        }
      ],
      "stateMutability": "view",
      "type": "function"
    },
    {
      "inputs": [],
      "name": "deposit",
      "outputs": [],
      "stateMutability": "payable",
      "type": "function"
    },
    {
      "inputs": [
        {
          "internalType": "address",
          "name": "_router",
          "type": "address"
        }
      ],
      "name": "initDEXRouter",
      "outputs": [],
      "stateMutability": "nonpayable",
      "type": "function"
    },
    {
      "inputs": [],
      "name": "isListed",
      "outputs": [
        {
          "internalType": "bool",
          "name": "",
          "type": "bool"
        }
      ],
      "stateMutability": "view",
      "type": "function"
    },
    {
      "inputs": [
        {
          "internalType": "uint256",
          "name": "lockIndex",
          "type": "uint256"
        },
        {
          "internalType": "address",
          "name": "account",
          "type": "address"
        },
        {
          "internalType": "uint256",
          "name": "amount",
          "type": "uint256"
        }
      ],
      "name": "lockTokens",
      "outputs": [],
      "stateMutability": "nonpayable",
      "type": "function"
    },
    {
      "inputs": [],
      "name": "lockedTokensAmount",
      "outputs": [
        {
          "internalType": "uint256",
          "name": "",
          "type": "uint256"
        }
      ],
      "stateMutability": "view",
      "type": "function"
    },
    {
      "inputs": [
        {
          "internalType": "address",
          "name": "",
          "type": "address"
        },
        {
          "internalType": "uint256",
          "name": "",
          "type": "uint256"
        }
      ],
      "name": "lockers",
      "outputs": [
        {
          "internalType": "uint256",
          "name": "totalTokens",
          "type": "uint256"
        },
        {
          "internalType": "uint256",
          "name": "totalClaimed",
          "type": "uint256"
        }
      ],
      "stateMutability": "view",
      "type": "function"
    },
    {
      "inputs": [
        {
          "internalType": "uint256",
          "name": "",
          "type": "uint256"
        }
      ],
      "name": "locks",
      "outputs": [
        {
          "internalType": "uint256",
          "name": "totalLockedTokens",
          "type": "uint256"
        },
        {
          "internalType": "uint256",
          "name": "firstReleasePercent",
          "type": "uint256"
        },
        {
          "internalType": "uint256",
          "name": "minPeriod",
          "type": "uint256"
        },
        {
          "internalType": "uint256",
          "name": "percentPerPeriod",
          "type": "uint256"
        },
        {
          "internalType": "uint256",
          "name": "offsetTime",
          "type": "uint256"
        },
        {
          "internalType": "uint256",
          "name": "totalClaimed",
          "type": "uint256"
        }
      ],
      "stateMutability": "view",
      "type": "function"
    },
    {
      "inputs": [],
      "name": "owner",
      "outputs": [
        {
          "internalType": "address",
          "name": "",
          "type": "address"
        }
      ],
      "stateMutability": "view",
      "type": "function"
    },
    {
      "inputs": [],
      "name": "reachedHardCap",
      "outputs": [
        {
          "internalType": "bool",
          "name": "",
          "type": "bool"
        }
      ],
      "stateMutability": "view",
      "type": "function"
    },
    {
      "inputs": [
        {
          "internalType": "address",
          "name": "tokenAddress",
          "type": "address"
        },
        {
          "internalType": "uint256",
          "name": "tokenAmount",
          "type": "uint256"
        }
      ],
      "name": "recoverERC20",
      "outputs": [],
      "stateMutability": "nonpayable",
      "type": "function"
    },
    {
      "inputs": [
        {
          "internalType": "uint256",
          "name": "bnbAmount",
          "type": "uint256"
        }
      ],
      "name": "releaseFunds",
      "outputs": [],
      "stateMutability": "nonpayable",
      "type": "function"
    },
    {
      "inputs": [
        {
          "internalType": "uint256",
          "name": "tokensAmount",
          "type": "uint256"
        }
      ],
      "name": "releaseTokens",
      "outputs": [],
      "stateMutability": "nonpayable",
      "type": "function"
    },
    {
      "inputs": [
        {
          "internalType": "address",
          "name": "account",
          "type": "address"
        }
      ],
      "name": "remainTokensOfAddress",
      "outputs": [
        {
          "internalType": "uint256",
          "name": "",
          "type": "uint256"
        }
      ],
      "stateMutability": "view",
      "type": "function"
    },
    {
      "inputs": [
        {
          "internalType": "address payable",
          "name": "_address",
          "type": "address"
        }
      ],
      "name": "removeWhiteList",
      "outputs": [],
      "stateMutability": "nonpayable",
      "type": "function"
    },
    {
      "inputs": [
        {
          "internalType": "address[]",
          "name": "_addresses",
          "type": "address[]"
        }
      ],
      "name": "removeWhiteListMulti",
      "outputs": [],
      "stateMutability": "nonpayable",
      "type": "function"
    },
    {
      "inputs": [],
      "name": "renounceOwnership",
      "outputs": [],
      "stateMutability": "nonpayable",
      "type": "function"
    },
    {
      "inputs": [],
      "name": "router",
      "outputs": [
        {
          "internalType": "contract IPancakeSwap",
          "name": "",
          "type": "address"
        }
      ],
      "stateMutability": "view",
      "type": "function"
    },
    {
      "inputs": [
        {
          "internalType": "uint256",
          "name": "stageIndex",
          "type": "uint256"
        },
        {
          "internalType": "uint256",
          "name": "minPeriod",
          "type": "uint256"
        },
        {
          "internalType": "uint256",
          "name": "percentPerPeriod",
          "type": "uint256"
        },
        {
          "internalType": "uint256",
          "name": "offsetTime",
          "type": "uint256"
        }
      ],
      "name": "setClaimConditions",
      "outputs": [],
      "stateMutability": "nonpayable",
      "type": "function"
    },
    {
      "inputs": [
        {
          "internalType": "uint256",
          "name": "stageIndex",
          "type": "uint256"
        },
        {
          "internalType": "uint256",
          "name": "percent",
          "type": "uint256"
        }
      ],
      "name": "setFirstReleasePercent",
      "outputs": [],
      "stateMutability": "nonpayable",
      "type": "function"
    },
    {
      "inputs": [
        {
          "internalType": "uint256",
          "name": "stageIndex",
          "type": "uint256"
        },
        {
          "internalType": "uint256",
          "name": "tokensAmount",
          "type": "uint256"
        }
      ],
      "name": "setHardCapInTokens",
      "outputs": [],
      "stateMutability": "nonpayable",
      "type": "function"
    },
    {
      "inputs": [
        {
          "internalType": "uint256",
          "name": "_timestamp",
          "type": "uint256"
        }
      ],
      "name": "setListed",
      "outputs": [],
      "stateMutability": "nonpayable",
      "type": "function"
    },
    {
      "inputs": [
        {
          "internalType": "uint256",
          "name": "stageIndex",
          "type": "uint256"
        },
        {
          "internalType": "uint256",
          "name": "usdtAmount",
          "type": "uint256"
        }
      ],
      "name": "setMaxDepositAmount",
      "outputs": [],
      "stateMutability": "nonpayable",
      "type": "function"
    },
    {
      "inputs": [
        {
          "internalType": "uint256",
          "name": "stageIndex",
          "type": "uint256"
        },
        {
          "internalType": "uint256",
          "name": "usdtAmount",
          "type": "uint256"
        }
      ],
      "name": "setMinDepositAmount",
      "outputs": [],
      "stateMutability": "nonpayable",
      "type": "function"
    },
    {
      "inputs": [
        {
          "internalType": "uint256",
          "name": "stageIndex",
          "type": "uint256"
        },
        {
          "internalType": "uint256",
          "name": "start",
          "type": "uint256"
        },
        {
          "internalType": "uint256",
          "name": "end",
          "type": "uint256"
        }
      ],
      "name": "setSaleTime",
      "outputs": [],
      "stateMutability": "nonpayable",
      "type": "function"
    },
    {
      "inputs": [
        {
          "internalType": "uint256",
          "name": "stageIndex",
          "type": "uint256"
        },
        {
          "internalType": "uint256",
          "name": "usdtAmountForThousandTokens",
          "type": "uint256"
        }
      ],
      "name": "setThousandTokensPriceInUSDT",
      "outputs": [],
      "stateMutability": "nonpayable",
      "type": "function"
    },
    {
      "inputs": [
        {
          "internalType": "uint256",
          "name": "",
          "type": "uint256"
        }
      ],
      "name": "stages",
      "outputs": [
        {
          "internalType": "uint256",
          "name": "startTimestamp",
          "type": "uint256"
        },
        {
          "internalType": "uint256",
          "name": "endTimestamp",
          "type": "uint256"
        },
        {
          "internalType": "uint256",
          "name": "hardCapInTokens",
          "type": "uint256"
        },
        {
          "internalType": "uint256",
          "name": "totalDistributedTokens",
          "type": "uint256"
        },
        {
          "internalType": "uint256",
          "name": "thousandTokensPriceInUSDT",
          "type": "uint256"
        },
        {
          "internalType": "uint256",
          "name": "minDepositInUSDT",
          "type": "uint256"
        },
        {
          "internalType": "uint256",
          "name": "maxDepositInUSDT",
          "type": "uint256"
        },
        {
          "internalType": "uint256",
          "name": "firstReleasePercent",
          "type": "uint256"
        },
        {
          "internalType": "uint256",
          "name": "minPeriod",
          "type": "uint256"
        },
        {
          "internalType": "uint256",
          "name": "percentPerPeriod",
          "type": "uint256"
        },
        {
          "internalType": "uint256",
          "name": "offsetTime",
          "type": "uint256"
        }
      ],
      "stateMutability": "view",
      "type": "function"
    },
    {
      "inputs": [],
      "name": "test",
      "outputs": [
        {
          "internalType": "bool",
          "name": "",
          "type": "bool"
        }
      ],
      "stateMutability": "view",
      "type": "function"
    },
    {
      "inputs": [],
      "name": "tgeTimestamp",
      "outputs": [
        {
          "internalType": "uint256",
          "name": "",
          "type": "uint256"
        }
      ],
      "stateMutability": "view",
      "type": "function"
    },
    {
      "inputs": [],
      "name": "token",
      "outputs": [
        {
          "internalType": "contract IERC20",
          "name": "",
          "type": "address"
        }
      ],
      "stateMutability": "view",
      "type": "function"
    },
    {
      "inputs": [
        {
          "internalType": "address",
          "name": "newOwner",
          "type": "address"
        }
      ],
      "name": "transferOwnership",
      "outputs": [],
      "stateMutability": "nonpayable",
      "type": "function"
    },
    {
      "inputs": [
        {
          "internalType": "address",
          "name": "",
          "type": "address"
        },
        {
          "internalType": "uint256",
          "name": "",
          "type": "uint256"
        }
      ],
      "name": "users",
      "outputs": [
        {
          "internalType": "uint256",
          "name": "totalTokens",
          "type": "uint256"
        },
        {
          "internalType": "uint256",
          "name": "totalClaimed",
          "type": "uint256"
        }
      ],
      "stateMutability": "view",
      "type": "function"
    },
    {
      "inputs": [
        {
          "internalType": "address",
          "name": "",
          "type": "address"
        }
      ],
      "name": "whitelist",
      "outputs": [
        {
          "internalType": "bool",
          "name": "",
          "type": "bool"
        }
      ],
      "stateMutability": "view",
      "type": "function"
    },
    {
      "stateMutability": "payable",
      "type": "receive"
    }
  ],
  "bytecode": "0x6080604052600180547fffffffffffffffffffffff00ffffffffffffffffffffffffffffffffffffffff1674010000000000000000000000000000000000000000179055600880547fffffffffffffffffffffffff0000000000000000000000000000000000000000167340d7c8f55c25f448204a140b5a6b0bd8c1e48b131790553480156200008e57600080fd5b506200009a3362000135565b600180547fffffffffffffffffffffffff000000000000000000000000000000000000000016732ea8c131b84a11f8ccc7bfdc6abe6a96341b8673179055620000f77314e9203e14ef89ab284b8e9eecc787b1743ad285620001aa565b33600090815260076020526040902080547fffffffffffffffffffffffffffffffffffffffffffffffffffffffffffffff0016600117905562000277565b6000805473ffffffffffffffffffffffffffffffffffffffff8381167fffffffffffffffffffffffff0000000000000000000000000000000000000000831681178455604051919092169283917f8be0079c531659141344cd1fd0a4f28419497f9722a3daafe3b4186f6b6457e09190a35050565b60005473ffffffffffffffffffffffffffffffffffffffff16331462000230576040517f08c379a000000000000000000000000000000000000000000000000000000000815260206004820181905260248201527f4f776e61626c653a2063616c6c6572206973206e6f7420746865206f776e6572604482015260640160405180910390fd5b600980547fffffffffffffffffffffffff00000000000000000000000000000000000000001673ffffffffffffffffffffffffffffffffffffffff92909216919091179055565b6144af80620002876000396000f3fe6080604052600436106102f65760003560e01c80638da5cb5b1161018f578063d5aedf82116100e1578063f2fde38b1161008a578063f8a8fd6d11610064578063f8a8fd6d146108f1578063fc0c546a14610923578063ff8460381461095057600080fd5b8063f2fde38b14610857578063f4dadc6114610877578063f887ea40146108c457600080fd5b8063e7f674a4116100bb578063e7f674a4146107f7578063e9958c9514610817578063ece1fb241461083757600080fd5b8063d5aedf8214610784578063d910b05a146107a4578063e7cd4a04146107d757600080fd5b80639fa4c45711610143578063b77311371161011d578063b77311371461073c578063d0e30db01461075c578063d111c86d1461076457600080fd5b80639fa4c457146106e6578063a4317ef414610706578063a6e1a54c1461071c57600080fd5b806395732d171161017457806395732d1714610676578063984efd40146106965780639b19251a146106b657600080fd5b80638da5cb5b14610614578063918f86741461066057600080fd5b80634e71d92d11610248578063618de286116101fc578063715018a6116101d6578063715018a61461056c578063845ddcb2146105815780638980f11f146105f457600080fd5b8063618de286146105165780636c1516e1146105365780637138e4b31461054c57600080fd5b8063567035051161022d57806356703505146104c15780635bf5d54c146104e157806360efe334146104f657600080fd5b80634e71d92d1461047757806354a02f9e1461048c57600080fd5b80632042e5c2116102aa578063322abc7211610284578063322abc72146104125780634b0babdd146104375780634d68282f1461045757600080fd5b80632042e5c2146103b25780632400baf8146103d25780632b39391a146103f257600080fd5b806311b56020116102db57806311b560201461034a57806314a5fd181461036a578063154b3db01461039257600080fd5b8063055fb6731461030a5780630f8d03e81461032a57600080fd5b3661030557610303610970565b005b600080fd5b34801561031657600080fd5b5061030361032536600461419e565b610e06565b34801561033657600080fd5b506103036103453660046141ec565b610f8b565b34801561035657600080fd5b5061030361036536600461419e565b6111f0565b34801561037657600080fd5b5061037f611376565b6040519081526020015b60405180910390f35b34801561039e57600080fd5b506103036103ad366004614166565b6113fe565b3480156103be57600080fd5b506103036103cd366004613f54565b61162b565b3480156103de57600080fd5b506103036103ed36600461421e565b6116f8565b3480156103fe57600080fd5b5061030361040d366004614134565b611a62565b34801561041e57600080fd5b50610427611d1f565b6040519015158152602001610389565b34801561044357600080fd5b50610303610452366004614134565b611df0565b34801561046357600080fd5b50610303610472366004614134565b612070565b34801561048357600080fd5b50610303612219565b34801561049857600080fd5b506104ac6104a7366004613f8e565b612438565b60408051928352602083019190915201610389565b3480156104cd57600080fd5b5061037f6104dc366004614166565b612474565b3480156104ed57600080fd5b5061037f612574565b34801561050257600080fd5b5061037f610511366004613f8e565b6125fc565b34801561052257600080fd5b50610303610531366004613fba565b61263f565b34801561054257600080fd5b5061037f6103e881565b34801561055857600080fd5b506103036105673660046141c0565b6127ef565b34801561057857600080fd5b50610303612924565b34801561058d57600080fd5b506105a161059c366004614134565b6129b1565b604080519b8c5260208c019a909a52988a01979097526060890195909552608088019390935260a087019190915260c086015260e085015261010084015261012083015261014082015261016001610389565b34801561060057600080fd5b5061030361060f366004613f8e565b612a1b565b34801561062057600080fd5b5060005473ffffffffffffffffffffffffffffffffffffffff165b60405173ffffffffffffffffffffffffffffffffffffffff9091168152602001610389565b34801561066c57600080fd5b5061037f61271081565b34801561068257600080fd5b5061037f610691366004614166565b612c55565b3480156106a257600080fd5b506103036106b136600461419e565b612cfa565b3480156106c257600080fd5b506104276106d1366004613f54565b60076020526000908152604090205460ff1681565b3480156106f257600080fd5b5061030361070136600461419e565b612e80565b34801561071257600080fd5b5061037f60025481565b34801561072857600080fd5b506104ac610737366004613f8e565b613003565b34801561074857600080fd5b5061037f610757366004613f54565b61301f565b610303610970565b34801561077057600080fd5b5061030361077f366004613f54565b613129565b34801561079057600080fd5b5061030361079f36600461419e565b6131f1565b3480156107b057600080fd5b50600154610427907501000000000000000000000000000000000000000000900460ff1681565b3480156107e357600080fd5b506103036107f2366004613f54565b613352565b34801561080357600080fd5b50610303610812366004613fba565b613422565b34801561082357600080fd5b506103036108323660046141ec565b6135d2565b34801561084357600080fd5b5061037f610852366004614134565b613715565b34801561086357600080fd5b50610303610872366004613f54565b613930565b34801561088357600080fd5b50610897610892366004614134565b613a60565b604080519687526020870195909552938501929092526060840152608083015260a082015260c001610389565b3480156108d057600080fd5b5060095461063b9073ffffffffffffffffffffffffffffffffffffffff1681565b3480156108fd57600080fd5b506001546104279074010000000000000000000000000000000000000000900460ff1681565b34801561092f57600080fd5b5060015461063b9073ffffffffffffffffffffffffffffffffffffffff1681565b34801561095c57600080fd5b5061030361096b366004614134565b613aa6565b600034116109df576040517f08c379a000000000000000000000000000000000000000000000000000000000815260206004820152601360248201527f496e73756666696369656e7420616d6f756e740000000000000000000000000060448201526064015b60405180910390fd5b3360009081526007602052604090205460ff161515600114610a5d576040517f08c379a000000000000000000000000000000000000000000000000000000000815260206004820152601b60248201527f4163636f756e74206973206e6f7420696e2077686974656c697374000000000060448201526064016109d6565b610a65611d1f565b15610acc576040517f08c379a000000000000000000000000000000000000000000000000000000000815260206004820152601b60248201527f486172642043617020697320616c72656164792072656163686564000000000060448201526064016109d6565b6000610ad6612574565b9050600060058281548110610aed57610aed6143f9565b600091825260208083203384526003909152604090922054600554600b909202909201925080821015610b875760005b610b27838361437a565b811015610b855733600090815260036020908152604080832081518083019092528382528183018481528154600181810184559286529390942091516002909302909101918255915191015580610b7d81614391565b915050610b1d565b505b336000908152600360205260408120805486908110610ba857610ba86143f9565b906000526020600020906002020190506000610bc334613715565b905084600501548110158015610bdd575084600601548111155b610c69576040517f08c379a000000000000000000000000000000000000000000000000000000000815260206004820152603660248201527f4465706f736974656420616d6f756e74206973206c657373206f72206772617460448201527f6572207468616e20616c6c6f7765642072616e67652e0000000000000000000060648201526084016109d6565b6004850154600090610c7d6103e88461433d565b610c879190614302565b600287015460038801549192508291610ca090836142ea565b1115610d955786600301548760020154610cba919061437a565b9050600082610cc9838261437a565b610cd3903461433d565b610cdd9190614302565b604051909150600090339083908381818185875af1925050503d8060008114610d22576040519150601f19603f3d011682016040523d82523d6000602084013e610d27565b606091505b5050905080610d92576040517f08c379a000000000000000000000000000000000000000000000000000000000815260206004820152601260248201527f43616e742073656e64206261636b20626e62000000000000000000000000000060448201526064016109d6565b50505b80876003016000828254610da991906142ea565b9091555050835481908590600090610dc29084906142ea565b909155505060405181815233907f2da466a7b24304f47e87fa2e1e5a81b9831ce54fec19055ce277ca2f39ba42c49060200160405180910390a25050505050505050565b60005473ffffffffffffffffffffffffffffffffffffffff163314610e87576040517f08c379a000000000000000000000000000000000000000000000000000000000815260206004820181905260248201527f4f776e61626c653a2063616c6c6572206973206e6f7420746865206f776e657260448201526064016109d6565b600060058381548110610e9c57610e9c6143f9565b90600052602060002090600b02019050612710821115610f3e576040517f08c379a000000000000000000000000000000000000000000000000000000000815260206004820152602660248201527f50657263656e742073686f756c64206265206c65737328657175616c2920746860448201527f616e20313030000000000000000000000000000000000000000000000000000060648201526084016109d6565b600781015460408051858152602081019290925281018390527f39d267fa17fbb547287dd24520b592ed226608cefc8622a9d844dfbdbdebc3969060600160405180910390a16007015550565b60005473ffffffffffffffffffffffffffffffffffffffff16331461100c576040517f08c379a000000000000000000000000000000000000000000000000000000000815260206004820181905260248201527f4f776e61626c653a2063616c6c6572206973206e6f7420746865206f776e657260448201526064016109d6565b6064841015801561101f57506127108411155b6110ab576040517f08c379a000000000000000000000000000000000000000000000000000000000815260206004820152602160248201527f53686f756c642062652070617373656420776974682044454e4f4d494e41544f60448201527f520000000000000000000000000000000000000000000000000000000000000060648201526084016109d6565b6000831180156110bb5750600082115b6110c457600080fd5b6040805160c081018252600080825260208201968752918101948552606081019384526080810192835260a0810182815260068054600181018255938190529151929091027ff652222313e28459528d920b65115c16c04f3efc82aaedc97be59f3f377c0d3f81019290925594517ff652222313e28459528d920b65115c16c04f3efc82aaedc97be59f3f377c0d4082015592517ff652222313e28459528d920b65115c16c04f3efc82aaedc97be59f3f377c0d4184015590517ff652222313e28459528d920b65115c16c04f3efc82aaedc97be59f3f377c0d42830155517ff652222313e28459528d920b65115c16c04f3efc82aaedc97be59f3f377c0d4382015590517ff652222313e28459528d920b65115c16c04f3efc82aaedc97be59f3f377c0d4490910155565b60005473ffffffffffffffffffffffffffffffffffffffff163314611271576040517f08c379a000000000000000000000000000000000000000000000000000000000815260206004820181905260248201527f4f776e61626c653a2063616c6c6572206973206e6f7420746865206f776e657260448201526064016109d6565b600060058381548110611286576112866143f9565b90600052602060002090600b0201905080600501548211611329576040517f08c379a000000000000000000000000000000000000000000000000000000000815260206004820152602a60248201527f4d61782076616c75652073686f756c642062652067726561746572207468616e60448201527f206d696e2076616c75650000000000000000000000000000000000000000000060648201526084016109d6565b600681015460408051858152602081019290925281018390527fea710c3128f749efc6b0eeacb800597633069c4c1abd73f9ebb8e7a20559c01b9060600160405180910390a16006015550565b60008060005b6006548110156113f85760068181548110611399576113996143f9565b906000526020600020906006020160050154600682815481106113be576113be6143f9565b9060005260206000209060060201600001546113da919061437a565b6113e490836142ea565b9150806113f081614391565b91505061137c565b50919050565b60005473ffffffffffffffffffffffffffffffffffffffff16331461147f576040517f08c379a000000000000000000000000000000000000000000000000000000000815260206004820181905260248201527f4f776e61626c653a2063616c6c6572206973206e6f7420746865206f776e657260448201526064016109d6565b600060068481548110611494576114946143f9565b6000918252602080832073ffffffffffffffffffffffffffffffffffffffff8716845260049091526040909220546006805492029092019250808210156115585760005b6114e2838361437a565b8110156115565773ffffffffffffffffffffffffffffffffffffffff861660009081526004602090815260408083208151808301909252838252818301848152815460018181018455928652939094209151600290930290910191825591519101558061154e81614391565b9150506114d8565b505b73ffffffffffffffffffffffffffffffffffffffff8516600090815260046020526040812080548890811061158f5761158f6143f9565b90600052602060002090600202019050848460000160008282546115b391906142ea565b90915550508054859082906000906115cc9084906142ea565b9091555050604080518881526020810187905273ffffffffffffffffffffffffffffffffffffffff8816917f55016b6cc60c3d15b7b1ebd0ab766c07b3082c98a5b4d1d7ff012a97652a4b1d910160405180910390a250505050505050565b60005473ffffffffffffffffffffffffffffffffffffffff1633146116ac576040517f08c379a000000000000000000000000000000000000000000000000000000000815260206004820181905260248201527f4f776e61626c653a2063616c6c6572206973206e6f7420746865206f776e657260448201526064016109d6565b73ffffffffffffffffffffffffffffffffffffffff16600090815260076020526040902080547fffffffffffffffffffffffffffffffffffffffffffffffffffffffffffffff00169055565b60005473ffffffffffffffffffffffffffffffffffffffff163314611779576040517f08c379a000000000000000000000000000000000000000000000000000000000815260206004820181905260248201527f4f776e61626c653a2063616c6c6572206973206e6f7420746865206f776e657260448201526064016109d6565b60055460031161178857600080fd5b888a1061179457600080fd5b8486106117a057600080fd5b6064841180156117b257506127108411155b61183e576040517f08c379a000000000000000000000000000000000000000000000000000000000815260206004820152602160248201527f53686f756c642062652070617373656420776974682044454e4f4d494e41544f60448201527f520000000000000000000000000000000000000000000000000000000000000060648201526084016109d6565b60008311801561184e5750600082115b61185757600080fd5b60408051610160810182529a8b5260208b01998a528a01978852600060608b0181815260808c0198895260a08c0197885260c08c0196875260e08c019586526101008c019485526101208c019384526101408c019283526005805460018101825592529a517f036b6384b5eca791c62761152d0c79bb0604c104a5fb6f4eb0703f3154bb3db0600b9092029182015598517f036b6384b5eca791c62761152d0c79bb0604c104a5fb6f4eb0703f3154bb3db18a015596517f036b6384b5eca791c62761152d0c79bb0604c104a5fb6f4eb0703f3154bb3db289015597517f036b6384b5eca791c62761152d0c79bb0604c104a5fb6f4eb0703f3154bb3db388015593517f036b6384b5eca791c62761152d0c79bb0604c104a5fb6f4eb0703f3154bb3db487015591517f036b6384b5eca791c62761152d0c79bb0604c104a5fb6f4eb0703f3154bb3db5860155517f036b6384b5eca791c62761152d0c79bb0604c104a5fb6f4eb0703f3154bb3db6850155517f036b6384b5eca791c62761152d0c79bb0604c104a5fb6f4eb0703f3154bb3db7840155517f036b6384b5eca791c62761152d0c79bb0604c104a5fb6f4eb0703f3154bb3db883015591517f036b6384b5eca791c62761152d0c79bb0604c104a5fb6f4eb0703f3154bb3db982015590517f036b6384b5eca791c62761152d0c79bb0604c104a5fb6f4eb0703f3154bb3dba90910155565b6001547501000000000000000000000000000000000000000000900460ff16611ae7576040517f08c379a000000000000000000000000000000000000000000000000000000000815260206004820152600a60248201527f4e6f74206c69737465640000000000000000000000000000000000000000000060448201526064016109d6565b3360008181526004602052604081209091611b0490849042612474565b91508115611c2e57808381548110611b1e57611b1e6143f9565b906000526020600020906002020160010154818481548110611b4257611b426143f9565b906000526020600020906002020160000154611b5e919061437a565b821115611bba57808381548110611b7757611b776143f9565b906000526020600020906002020160010154818481548110611b9b57611b9b6143f9565b906000526020600020906002020160000154611bb7919061437a565b91505b81818481548110611bcd57611bcd6143f9565b90600052602060002090600202016001016000828254611bed91906142ea565b925050819055508160068481548110611c0857611c086143f9565b90600052602060002090600602016005016000828254611c2891906142ea565b90915550505b8115611d1a576001546040517fa9059cbb0000000000000000000000000000000000000000000000000000000081523360048201526024810184905273ffffffffffffffffffffffffffffffffffffffff9091169063a9059cbb906044015b602060405180830381600087803b158015611ca757600080fd5b505af1158015611cbb573d6000803e3d6000fd5b505050506040513d601f19601f82011682018060405250810190611cdf9190614112565b5060408051338152602081018490527fd8138f8a3f377c5259ca548e70e4c2de94f129f5a11036a15b69513cba2b426a910160405180910390a15b505050565b60006003611d2b612574565b10611d92576040517f08c379a000000000000000000000000000000000000000000000000000000000815260206004820152601d60248201527f53616c65732066696e6973686564206f72206e6f74207374617274656400000060448201526064016109d6565b6005611d9c612574565b81548110611dac57611dac6143f9565b90600052602060002090600b0201600301546005611dc8612574565b81548110611dd857611dd86143f9565b90600052602060002090600b02016002015414905090565b60005473ffffffffffffffffffffffffffffffffffffffff163314611e71576040517f08c379a000000000000000000000000000000000000000000000000000000000815260206004820181905260248201527f4f776e61626c653a2063616c6c6572206973206e6f7420746865206f776e657260448201526064016109d6565b6000611e7b611376565b6001546040517f70a0823100000000000000000000000000000000000000000000000000000000815230600482015291925060009173ffffffffffffffffffffffffffffffffffffffff909116906370a082319060240160206040518083038186803b158015611eea57600080fd5b505afa158015611efe573d6000803e3d6000fd5b505050506040513d601f19601f82011682018060405250810190611f22919061414d565b90506000818310611f34576000611f3e565b611f3e838361437a565b9050831580611f4c57508084115b15611f55578093505b60008411611fbf576040517f08c379a000000000000000000000000000000000000000000000000000000000815260206004820152601360248201527f496e73756666696369656e7420616d6f756e740000000000000000000000000060448201526064016109d6565b6001546040517fa9059cbb0000000000000000000000000000000000000000000000000000000081523360048201526024810186905273ffffffffffffffffffffffffffffffffffffffff9091169063a9059cbb90604401602060405180830381600087803b15801561203157600080fd5b505af1158015612045573d6000803e3d6000fd5b505050506040513d601f19601f820116820180604052508101906120699190614112565b5050505050565b60005473ffffffffffffffffffffffffffffffffffffffff1633146120f1576040517f08c379a000000000000000000000000000000000000000000000000000000000815260206004820181905260248201527f4f776e61626c653a2063616c6c6572206973206e6f7420746865206f776e657260448201526064016109d6565b806120f95750475b60008111612163576040517f08c379a000000000000000000000000000000000000000000000000000000000815260206004820152601360248201527f496e73756666696369656e7420616d6f756e740000000000000000000000000060448201526064016109d6565b604051600090339083908381818185875af1925050503d80600081146121a5576040519150601f19603f3d011682016040523d82523d6000602084013e6121aa565b606091505b5050905080612215576040517f08c379a000000000000000000000000000000000000000000000000000000000815260206004820152600c60248201527f43616e742072656c65617365000000000000000000000000000000000000000060448201526064016109d6565b5050565b6001547501000000000000000000000000000000000000000000900460ff1661229e576040517f08c379a000000000000000000000000000000000000000000000000000000000815260206004820152600a60248201527f4e6f74206c69737465640000000000000000000000000000000000000000000060448201526064016109d6565b3360009081526003602052604081208190815b6005548110156123d4576122c6813342612c55565b935083156123c2578181815481106122e0576122e06143f9565b906000526020600020906002020160010154828281548110612304576123046143f9565b906000526020600020906002020160000154612320919061437a565b84111561237c57818181548110612339576123396143f9565b90600052602060002090600202016001015482828154811061235d5761235d6143f9565b906000526020600020906002020160000154612379919061437a565b93505b8382828154811061238f5761238f6143f9565b906000526020600020906002020160010160008282546123af91906142ea565b909155506123bf905084846142ea565b92505b806123cc81614391565b9150506122b1565b508115611d1a576001546040517fa9059cbb0000000000000000000000000000000000000000000000000000000081523360048201526024810184905273ffffffffffffffffffffffffffffffffffffffff9091169063a9059cbb90604401611c8d565b6003602052816000526040600020818154811061245457600080fd5b600091825260209091206002909102018054600190910154909250905082565b600654600090841061248557600080fd5b6001547501000000000000000000000000000000000000000000900460ff166124b05750600061256d565b73ffffffffffffffffffffffffffffffffffffffff831660009081526004602052604081208054869081106124e7576124e76143f9565b600091825260208083206040805180820190915260029093020180548352600101549082015291506125198685613cae565b90506000612710828460000151612530919061433d565b61253a9190614302565b90508260200151811015612554576000935050505061256d565b6000836020015182612566919061437a565b9450505050505b9392505050565b6000805b6005548110156125f45760058181548110612595576125956143f9565b90600052602060002090600b020160000154421180156125d85750600581815481106125c3576125c36143f9565b90600052602060002090600b02016001015442105b156125e257919050565b806125ec81614391565b915050612578565b506003905090565b60008060005b60055481101561263557612617818686612c55565b61262190836142ea565b91508061262d81614391565b915050612602565b5090505b92915050565b60005473ffffffffffffffffffffffffffffffffffffffff1633146126c0576040517f08c379a000000000000000000000000000000000000000000000000000000000815260206004820181905260248201527f4f776e61626c653a2063616c6c6572206973206e6f7420746865206f776e657260448201526064016109d6565b612710811115612752576040517f08c379a000000000000000000000000000000000000000000000000000000000815260206004820152602b60248201527f50726f76696465206c6573732061646472657373657320696e206f6e6520667560448201527f6e6374696f6e2063616c6c00000000000000000000000000000000000000000060648201526084016109d6565b60005b81811015611d1a57600160076000858585818110612775576127756143f9565b905060200201602081019061278a9190613f54565b73ffffffffffffffffffffffffffffffffffffffff168152602081019190915260400160002080547fffffffffffffffffffffffffffffffffffffffffffffffffffffffffffffff0016911515919091179055806127e781614391565b915050612755565b60005473ffffffffffffffffffffffffffffffffffffffff163314612870576040517f08c379a000000000000000000000000000000000000000000000000000000000815260206004820181905260248201527f4f776e61626c653a2063616c6c6572206973206e6f7420746865206f776e657260448201526064016109d6565b600060058481548110612885576128856143f9565b90600052602060002090600b0201905081831080156128a45750600083115b80156128af57504282115b6128b857600080fd5b428310156128c4574292505b8054600182015460408051878152602081019390935282015260608101849052608081018390527f90d880086a877c09c3ffefe5adb133cf90eca1444e6f8428177b46bd26892ef09060a00160405180910390a191825560019091015550565b60005473ffffffffffffffffffffffffffffffffffffffff1633146129a5576040517f08c379a000000000000000000000000000000000000000000000000000000000815260206004820181905260248201527f4f776e61626c653a2063616c6c6572206973206e6f7420746865206f776e657260448201526064016109d6565b6129af6000613dc0565b565b600581815481106129c157600080fd5b90600052602060002090600b020160009150905080600001549080600101549080600201549080600301549080600401549080600501549080600601549080600701549080600801549080600901549080600a015490508b565b60005473ffffffffffffffffffffffffffffffffffffffff163314612a9c576040517f08c379a000000000000000000000000000000000000000000000000000000000815260206004820181905260248201527f4f776e61626c653a2063616c6c6572206973206e6f7420746865206f776e657260448201526064016109d6565b60015473ffffffffffffffffffffffffffffffffffffffff83811691161415612b21576040517f08c379a000000000000000000000000000000000000000000000000000000000815260206004820152601860248201527f43616e2774207265636f7665722073616c6520746f6b656e000000000000000060448201526064016109d6565b8173ffffffffffffffffffffffffffffffffffffffff1663a9059cbb612b5c60005473ffffffffffffffffffffffffffffffffffffffff1690565b6040517fffffffff0000000000000000000000000000000000000000000000000000000060e084901b16815273ffffffffffffffffffffffffffffffffffffffff909116600482015260248101849052604401602060405180830381600087803b158015612bc957600080fd5b505af1158015612bdd573d6000803e3d6000fd5b505050506040513d601f19601f82011682018060405250810190612c019190614112565b506040805173ffffffffffffffffffffffffffffffffffffffff84168152602081018390527f8c1256b8896378cd5044f80c202f9772b9d77dc85c8a6eb51967210b09bfaa28910160405180910390a15050565b6005546000908410612c6657600080fd5b6001547501000000000000000000000000000000000000000000900460ff16612c915750600061256d565b73ffffffffffffffffffffffffffffffffffffffff83166000908152600360205260408120805486908110612cc857612cc86143f9565b600091825260208083206040805180820190915260029093020180548352600101549082015291506125198685613e35565b60005473ffffffffffffffffffffffffffffffffffffffff163314612d7b576040517f08c379a000000000000000000000000000000000000000000000000000000000815260206004820181905260248201527f4f776e61626c653a2063616c6c6572206973206e6f7420746865206f776e657260448201526064016109d6565b600060058381548110612d9057612d906143f9565b90600052602060002090600b0201905080600601548210612e33576040517f08c379a000000000000000000000000000000000000000000000000000000000815260206004820152602760248201527f4d696e2076616c75652073686f756c64206265206c657373207468616e206d6160448201527f782076616c75650000000000000000000000000000000000000000000000000060648201526084016109d6565b600581015460408051858152602081019290925281018390527fea710c3128f749efc6b0eeacb800597633069c4c1abd73f9ebb8e7a20559c01b9060600160405180910390a16005015550565b60005473ffffffffffffffffffffffffffffffffffffffff163314612f01576040517f08c379a000000000000000000000000000000000000000000000000000000000815260206004820181905260248201527f4f776e61626c653a2063616c6c6572206973206e6f7420746865206f776e657260448201526064016109d6565b600060058381548110612f1657612f166143f9565b90600052602060002090600b0201905060008211612fb6576040517f08c379a000000000000000000000000000000000000000000000000000000000815260206004820152602760248201527f5553445420616d6f756e742073686f756c64206265206772656174657220746860448201527f616e207a65726f0000000000000000000000000000000000000000000000000060648201526084016109d6565b600481015460408051858152602081019290925281018390527f2a0f815f2f63e7f0e09210613133ed3f2747ee287d0f1e4f2399b166704de3d89060600160405180910390a16004015550565b6004602052816000526040600020818154811061245457600080fd5b73ffffffffffffffffffffffffffffffffffffffff8116600090815260036020908152604080832080548251818502810185019093528083528493849084015b828210156130a55783829060005260206000209060020201604051806040016040529081600082015481526020016001820154815250508152602001906001019061305f565b505050509050600080600090505b600554811015613121578281815181106130cf576130cf6143f9565b6020026020010151602001518382815181106130ed576130ed6143f9565b602002602001015160000151613103919061437a565b61310d90836142ea565b91508061311981614391565b9150506130b3565b509392505050565b60005473ffffffffffffffffffffffffffffffffffffffff1633146131aa576040517f08c379a000000000000000000000000000000000000000000000000000000000815260206004820181905260248201527f4f776e61626c653a2063616c6c6572206973206e6f7420746865206f776e657260448201526064016109d6565b600980547fffffffffffffffffffffffff00000000000000000000000000000000000000001673ffffffffffffffffffffffffffffffffffffffff92909216919091179055565b60005473ffffffffffffffffffffffffffffffffffffffff163314613272576040517f08c379a000000000000000000000000000000000000000000000000000000000815260206004820181905260248201527f4f776e61626c653a2063616c6c6572206973206e6f7420746865206f776e657260448201526064016109d6565b600060058381548110613287576132876143f9565b90600052602060002090600b020190508181600301541115613305576040517f08c379a000000000000000000000000000000000000000000000000000000000815260206004820152601a60248201527f48617264206361702073686f756c64206265206772656174657200000000000060448201526064016109d6565b600281015460408051858152602081019290925281018390527f517a9ad37b0eac1207549dd05a6f49625b527aadac63ba909fcc4eeb0307d7689060600160405180910390a16002015550565b60005473ffffffffffffffffffffffffffffffffffffffff1633146133d3576040517f08c379a000000000000000000000000000000000000000000000000000000000815260206004820181905260248201527f4f776e61626c653a2063616c6c6572206973206e6f7420746865206f776e657260448201526064016109d6565b73ffffffffffffffffffffffffffffffffffffffff16600090815260076020526040902080547fffffffffffffffffffffffffffffffffffffffffffffffffffffffffffffff00166001179055565b60005473ffffffffffffffffffffffffffffffffffffffff1633146134a3576040517f08c379a000000000000000000000000000000000000000000000000000000000815260206004820181905260248201527f4f776e61626c653a2063616c6c6572206973206e6f7420746865206f776e657260448201526064016109d6565b612710811115613535576040517f08c379a000000000000000000000000000000000000000000000000000000000815260206004820152602b60248201527f50726f76696465206c6573732061646472657373657320696e206f6e6520667560448201527f6e6374696f6e2063616c6c00000000000000000000000000000000000000000060648201526084016109d6565b60005b81811015611d1a57600060076000858585818110613558576135586143f9565b905060200201602081019061356d9190613f54565b73ffffffffffffffffffffffffffffffffffffffff168152602081019190915260400160002080547fffffffffffffffffffffffffffffffffffffffffffffffffffffffffffffff0016911515919091179055806135ca81614391565b915050613538565b60005473ffffffffffffffffffffffffffffffffffffffff163314613653576040517f08c379a000000000000000000000000000000000000000000000000000000000815260206004820181905260248201527f4f776e61626c653a2063616c6c6572206973206e6f7420746865206f776e657260448201526064016109d6565b600060058581548110613668576136686143f9565b90600052602060002090600b020190506000841180156136885750600083115b61369157600080fd5b60088101546009820154600a83015460408051898152602081019490945283019190915260608201526080810185905260a0810184905260c081018390527fa4b190095fce64b554cb2acaacb6fd91fe89e26ee835087cf4198fd9ad4efafd9060e00160405180910390a160088101939093556009830191909155600a9091015550565b60408051600280825260608083018452600093909291906020830190803683375050600954604080517fad5c4648000000000000000000000000000000000000000000000000000000008152905193945073ffffffffffffffffffffffffffffffffffffffff9091169263ad5c464892506004808301926020929190829003018186803b1580156137a557600080fd5b505afa1580156137b9573d6000803e3d6000fd5b505050506040513d601f19601f820116820180604052508101906137dd9190613f71565b816000815181106137f0576137f06143f9565b73ffffffffffffffffffffffffffffffffffffffff928316602091820292909201015260085482519116908290600190811061382e5761382e6143f9565b73ffffffffffffffffffffffffffffffffffffffff92831660209182029290920101526009546040517fd06ca61f000000000000000000000000000000000000000000000000000000008152600092919091169063d06ca61f906138989087908690600401614286565b60006040518083038186803b1580156138b057600080fd5b505afa1580156138c4573d6000803e3d6000fd5b505050506040513d6000823e601f3d9081017fffffffffffffffffffffffffffffffffffffffffffffffffffffffffffffffe016820160405261390a919081019061402f565b60018151811061391c5761391c6143f9565b602002602001015190508092505050919050565b60005473ffffffffffffffffffffffffffffffffffffffff1633146139b1576040517f08c379a000000000000000000000000000000000000000000000000000000000815260206004820181905260248201527f4f776e61626c653a2063616c6c6572206973206e6f7420746865206f776e657260448201526064016109d6565b73ffffffffffffffffffffffffffffffffffffffff8116613a54576040517f08c379a000000000000000000000000000000000000000000000000000000000815260206004820152602660248201527f4f776e61626c653a206e6577206f776e657220697320746865207a65726f206160448201527f646472657373000000000000000000000000000000000000000000000000000060648201526084016109d6565b613a5d81613dc0565b50565b60068181548110613a7057600080fd5b60009182526020909120600690910201805460018201546002830154600384015460048501546005909501549395509193909286565b60005473ffffffffffffffffffffffffffffffffffffffff163314613b27576040517f08c379a000000000000000000000000000000000000000000000000000000000815260206004820181905260248201527f4f776e61626c653a2063616c6c6572206973206e6f7420746865206f776e657260448201526064016109d6565b6005600081548110613b3b57613b3b6143f9565b90600052602060002090600b02016001015460001415613bb7576040517f08c379a000000000000000000000000000000000000000000000000000000000815260206004820152601160248201527f53616c6573206e6f74207374617274656400000000000000000000000000000060448201526064016109d6565b613bbf612574565b600314613c28576040517f08c379a000000000000000000000000000000000000000000000000000000000815260206004820152601460248201527f50726573616c65206e6f742066696e697368656400000000000000000000000060448201526064016109d6565b600180547fffffffffffffffffffff00ffffffffffffffffffffffffffffffffffffffffff16750100000000000000000000000000000000000000000017905542811015613c735750425b60028190556040518181527ff3ecdc9ffda52c5ad69793c567cb456f83bba2d14f196542e0be80c919a8bda39060200160405180910390a150565b60008060068481548110613cc457613cc46143f9565b60009182526020918290206040805160c081018252600690930290910180548352600181015493830184905260028101549183019190915260038101546060830152600481015460808301526005015460a0820152915083613d24574293505b600254613d31908561437a565b82608001511015613db8576000826080015160025486613d51919061437a565b613d5b919061437a565b90506000836040015182613d6f9190614302565b905080613d825782945050505050612639565b6060840151613d91908261433d565b613d9b90846142ea565b9250612710831115613db557612710945050505050612639565b50505b949350505050565b6000805473ffffffffffffffffffffffffffffffffffffffff8381167fffffffffffffffffffffffff0000000000000000000000000000000000000000831681178455604051919092169283917f8be0079c531659141344cd1fd0a4f28419497f9722a3daafe3b4186f6b6457e09190a35050565b60008060058481548110613e4b57613e4b6143f9565b60009182526020918290206040805161016081018252600b909302909101805483526001810154938301939093526002830154908201526003820154606082015260048201546080820152600582015460a0820152600682015460c0820152600782015460e0820181905260088301546101008301526009830154610120830152600a90920154610140820152915083613ee3574293505b600254613ef0908561437a565b8261014001511015613db857600082610140015160025486613f12919061437a565b613f1c919061437a565b9050600083610100015182613f319190614302565b905080613f445782945050505050612639565b610120840151613d91908261433d565b600060208284031215613f6657600080fd5b813561256d81614457565b600060208284031215613f8357600080fd5b815161256d81614457565b60008060408385031215613fa157600080fd5b8235613fac81614457565b946020939093013593505050565b60008060208385031215613fcd57600080fd5b823567ffffffffffffffff80821115613fe557600080fd5b818501915085601f830112613ff957600080fd5b81358181111561400857600080fd5b8660208260051b850101111561401d57600080fd5b60209290920196919550909350505050565b6000602080838503121561404257600080fd5b825167ffffffffffffffff8082111561405a57600080fd5b818501915085601f83011261406e57600080fd5b81518181111561408057614080614428565b8060051b6040517fffffffffffffffffffffffffffffffffffffffffffffffffffffffffffffffe0603f830116810181811085821117156140c3576140c3614428565b604052828152858101935084860182860187018a10156140e257600080fd5b600095505b838610156141055780518552600195909501949386019386016140e7565b5098975050505050505050565b60006020828403121561412457600080fd5b8151801515811461256d57600080fd5b60006020828403121561414657600080fd5b5035919050565b60006020828403121561415f57600080fd5b5051919050565b60008060006060848603121561417b57600080fd5b83359250602084013561418d81614457565b929592945050506040919091013590565b600080604083850312156141b157600080fd5b50508035926020909101359150565b6000806000606084860312156141d557600080fd5b505081359360208301359350604090920135919050565b6000806000806080858703121561420257600080fd5b5050823594602084013594506040840135936060013592509050565b6000806000806000806000806000806101408b8d03121561423e57600080fd5b505088359a60208a01359a5060408a013599606081013599506080810135985060a0810135975060c0810135965060e081013595506101008101359450610120013592509050565b6000604082018483526020604081850152818551808452606086019150828701935060005b818110156142dd57845173ffffffffffffffffffffffffffffffffffffffff16835293830193918301916001016142ab565b5090979650505050505050565b600082198211156142fd576142fd6143ca565b500190565b600082614338577f4e487b7100000000000000000000000000000000000000000000000000000000600052601260045260246000fd5b500490565b6000817fffffffffffffffffffffffffffffffffffffffffffffffffffffffffffffffff0483118215151615614375576143756143ca565b500290565b60008282101561438c5761438c6143ca565b500390565b60007fffffffffffffffffffffffffffffffffffffffffffffffffffffffffffffffff8214156143c3576143c36143ca565b5060010190565b7f4e487b7100000000000000000000000000000000000000000000000000000000600052601160045260246000fd5b7f4e487b7100000000000000000000000000000000000000000000000000000000600052603260045260246000fd5b7f4e487b7100000000000000000000000000000000000000000000000000000000600052604160045260246000fd5b73ffffffffffffffffffffffffffffffffffffffff81168114613a5d57600080fdfea2646970667358221220e66a326fb27468dd1c0bd4f05ab3d37aab6154a2297d9d7b9b28f4839b78b2d464736f6c63430008070033",
  "linkReferences": {},
  "deployedLinkReferences": {}
}